{
  "_format": "hh-sol-artifact-1",
  "contractName": "SolidatiryToken",
  "sourceName": "contracts/SolidatiryToken.sol",
  "abi": [
    {
      "inputs": [
        {
          "internalType": "string",
          "name": "name_",
          "type": "string"
        },
        {
          "internalType": "string",
          "name": "symbol_",
          "type": "string"
        },
        {
          "internalType": "contract ISwapRouter",
          "name": "router",
          "type": "address"
        }
      ],
      "stateMutability": "nonpayable",
      "type": "constructor"
    },
    {
      "anonymous": false,
      "inputs": [
        {
          "indexed": true,
          "internalType": "address",
          "name": "owner",
          "type": "address"
        },
        {
          "indexed": true,
          "internalType": "address",
          "name": "spender",
          "type": "address"
        },
        {
          "indexed": false,
          "internalType": "uint256",
          "name": "value",
          "type": "uint256"
        }
      ],
      "name": "Approval",
      "type": "event"
    },
    {
      "anonymous": false,
      "inputs": [
        {
          "indexed": true,
          "internalType": "address",
          "name": "previousOwner",
          "type": "address"
        },
        {
          "indexed": true,
          "internalType": "address",
          "name": "newOwner",
          "type": "address"
        }
      ],
      "name": "OwnershipTransferred",
      "type": "event"
    },
    {
      "anonymous": false,
      "inputs": [
        {
          "indexed": false,
          "internalType": "address",
          "name": "account",
          "type": "address"
        }
      ],
      "name": "Paused",
      "type": "event"
    },
    {
      "anonymous": false,
      "inputs": [
        {
          "indexed": true,
          "internalType": "address",
          "name": "from",
          "type": "address"
        },
        {
          "indexed": true,
          "internalType": "address",
          "name": "to",
          "type": "address"
        },
        {
          "indexed": false,
          "internalType": "uint256",
          "name": "value",
          "type": "uint256"
        }
      ],
      "name": "Transfer",
      "type": "event"
    },
    {
      "anonymous": false,
      "inputs": [
        {
          "indexed": false,
          "internalType": "address",
          "name": "account",
          "type": "address"
        }
      ],
      "name": "Unpaused",
      "type": "event"
    },
    {
      "inputs": [
        {
          "internalType": "address",
          "name": "owner",
          "type": "address"
        },
        {
          "internalType": "address",
          "name": "spender",
          "type": "address"
        }
      ],
      "name": "allowance",
      "outputs": [
        {
          "internalType": "uint256",
          "name": "",
          "type": "uint256"
        }
      ],
      "stateMutability": "view",
      "type": "function"
    },
    {
      "inputs": [
        {
          "internalType": "address",
          "name": "spender",
          "type": "address"
        },
        {
          "internalType": "uint256",
          "name": "amount",
          "type": "uint256"
        }
      ],
      "name": "approve",
      "outputs": [
        {
          "internalType": "bool",
          "name": "",
          "type": "bool"
        }
      ],
      "stateMutability": "nonpayable",
      "type": "function"
    },
    {
      "inputs": [
        {
          "internalType": "address",
          "name": "account",
          "type": "address"
        }
      ],
      "name": "balanceOf",
      "outputs": [
        {
          "internalType": "uint256",
          "name": "",
          "type": "uint256"
        }
      ],
      "stateMutability": "view",
      "type": "function"
    },
    {
      "inputs": [
        {
          "internalType": "uint256",
          "name": "amount",
          "type": "uint256"
        }
      ],
      "name": "burn",
      "outputs": [],
      "stateMutability": "nonpayable",
      "type": "function"
    },
    {
      "inputs": [
        {
          "internalType": "address",
          "name": "account",
          "type": "address"
        },
        {
          "internalType": "uint256",
          "name": "amount",
          "type": "uint256"
        }
      ],
      "name": "burnFrom",
      "outputs": [],
      "stateMutability": "nonpayable",
      "type": "function"
    },
    {
      "inputs": [],
      "name": "decimals",
      "outputs": [
        {
          "internalType": "uint8",
          "name": "",
          "type": "uint8"
        }
      ],
      "stateMutability": "view",
      "type": "function"
    },
    {
      "inputs": [
        {
          "internalType": "address",
          "name": "spender",
          "type": "address"
        },
        {
          "internalType": "uint256",
          "name": "subtractedValue",
          "type": "uint256"
        }
      ],
      "name": "decreaseAllowance",
      "outputs": [
        {
          "internalType": "bool",
          "name": "",
          "type": "bool"
        }
      ],
      "stateMutability": "nonpayable",
      "type": "function"
    },
    {
      "inputs": [
        {
          "internalType": "uint256",
          "name": "amountIn",
          "type": "uint256"
        },
        {
          "internalType": "uint256",
          "name": "amountOut",
          "type": "uint256"
        },
        {
          "internalType": "address",
          "name": "tokenIn",
          "type": "address"
        },
        {
          "internalType": "address",
          "name": "tokenOut",
          "type": "address"
        },
        {
          "internalType": "uint160",
          "name": "priceLimit",
          "type": "uint160"
        },
        {
          "internalType": "uint24",
          "name": "fee",
          "type": "uint24"
        }
      ],
      "name": "donate",
      "outputs": [],
      "stateMutability": "nonpayable",
      "type": "function"
    },
    {
      "inputs": [
        {
          "internalType": "address",
          "name": "a",
          "type": "address"
        },
        {
          "internalType": "address",
          "name": "b",
          "type": "address"
        }
      ],
      "name": "getTokenInTokenOut",
      "outputs": [
        {
          "internalType": "bool",
          "name": "",
          "type": "bool"
        }
      ],
      "stateMutability": "nonpayable",
      "type": "function"
    },
    {
      "inputs": [
        {
          "internalType": "address",
          "name": "spender",
          "type": "address"
        },
        {
          "internalType": "uint256",
          "name": "addedValue",
          "type": "uint256"
        }
      ],
      "name": "increaseAllowance",
      "outputs": [
        {
          "internalType": "bool",
          "name": "",
          "type": "bool"
        }
      ],
      "stateMutability": "nonpayable",
      "type": "function"
    },
    {
      "inputs": [
        {
          "internalType": "address",
          "name": "to",
          "type": "address"
        },
        {
          "internalType": "uint256",
          "name": "amount",
          "type": "uint256"
        }
      ],
      "name": "mint",
      "outputs": [],
      "stateMutability": "nonpayable",
      "type": "function"
    },
    {
      "inputs": [],
      "name": "name",
      "outputs": [
        {
          "internalType": "string",
          "name": "",
          "type": "string"
        }
      ],
      "stateMutability": "view",
      "type": "function"
    },
    {
      "inputs": [],
      "name": "owner",
      "outputs": [
        {
          "internalType": "address",
          "name": "",
          "type": "address"
        }
      ],
      "stateMutability": "view",
      "type": "function"
    },
    {
      "inputs": [],
      "name": "pause",
      "outputs": [],
      "stateMutability": "nonpayable",
      "type": "function"
    },
    {
      "inputs": [],
      "name": "paused",
      "outputs": [
        {
          "internalType": "bool",
          "name": "",
          "type": "bool"
        }
      ],
      "stateMutability": "view",
      "type": "function"
    },
    {
      "inputs": [],
      "name": "renounceOwnership",
      "outputs": [],
      "stateMutability": "nonpayable",
      "type": "function"
    },
    {
      "inputs": [],
      "name": "symbol",
      "outputs": [
        {
          "internalType": "string",
          "name": "",
          "type": "string"
        }
      ],
      "stateMutability": "view",
      "type": "function"
    },
    {
      "inputs": [],
      "name": "totalSupply",
      "outputs": [
        {
          "internalType": "uint256",
          "name": "",
          "type": "uint256"
        }
      ],
      "stateMutability": "view",
      "type": "function"
    },
    {
      "inputs": [
        {
          "internalType": "address",
          "name": "recipient",
          "type": "address"
        },
        {
          "internalType": "uint256",
          "name": "amount",
          "type": "uint256"
        }
      ],
      "name": "transfer",
      "outputs": [
        {
          "internalType": "bool",
          "name": "",
          "type": "bool"
        }
      ],
      "stateMutability": "nonpayable",
      "type": "function"
    },
    {
      "inputs": [
        {
          "internalType": "address",
          "name": "sender",
          "type": "address"
        },
        {
          "internalType": "address",
          "name": "recipient",
          "type": "address"
        },
        {
          "internalType": "uint256",
          "name": "amount",
          "type": "uint256"
        }
      ],
      "name": "transferFrom",
      "outputs": [
        {
          "internalType": "bool",
          "name": "",
          "type": "bool"
        }
      ],
      "stateMutability": "nonpayable",
      "type": "function"
    },
    {
      "inputs": [
        {
          "internalType": "address",
          "name": "newOwner",
          "type": "address"
        }
      ],
      "name": "transferOwnership",
      "outputs": [],
      "stateMutability": "nonpayable",
      "type": "function"
    },
    {
      "inputs": [],
      "name": "unpause",
      "outputs": [],
      "stateMutability": "nonpayable",
      "type": "function"
    }
  ],
  "bytecode": "0x60a06040523480156200001157600080fd5b506040516200252038038062002520833981810160405260608110156200003757600080fd5b81019080805160405193929190846401000000008211156200005857600080fd5b9083019060208201858111156200006e57600080fd5b82516401000000008111828201881017156200008957600080fd5b82525081516020918201929091019080838360005b83811015620000b85781810151838201526020016200009e565b50505050905090810190601f168015620000e65780820380516001836020036101000a031916815260200191505b50604052602001805160405193929190846401000000008211156200010a57600080fd5b9083019060208201858111156200012057600080fd5b82516401000000008111828201881017156200013b57600080fd5b82525081516020918201929091019080838360005b838110156200016a57818101518382015260200162000150565b50505050905090810190601f168015620001985780820380516001836020036101000a031916815260200191505b50604052602090810151855190935083925085918591620001c091600391908501906200026f565b508051620001d69060049060208401906200026f565b50506005805461ff001960ff19909116601217169055506000620001f96200026b565b6005805462010000600160b01b031916620100006001600160a01b03841690810291909117909155604051919250906000907f8be0079c531659141344cd1fd0a4f28419497f9722a3daafe3b4186f6b6457e0908290a35060601b6001600160601b031916608052506200031b915050565b3390565b828054600181600116156101000203166002900490600052602060002090601f016020900481019282620002a75760008555620002f2565b82601f10620002c257805160ff1916838001178555620002f2565b82800160010185558215620002f2579182015b82811115620002f2578251825591602001919060010190620002d5565b506200030092915062000304565b5090565b5b8082111562000300576000815560010162000305565b60805160601c6121dd620003436000398061070452806107cb528061093552506121dd6000f3fe608060405234801561001057600080fd5b50600436106101825760003560e01c80635c975abb116100d85780638da5cb5b1161008c578063a9059cbb11610066578063a9059cbb146104f1578063dd62ed3e1461052a578063f2fde38b1461056557610182565b80638da5cb5b1461047f57806395d89b41146104b0578063a457c2d7146104b857610182565b8063715018a6116100bd578063715018a61461043657806379cc67901461043e5780638456cb591461047757610182565b80635c975abb146103fb57806370a082311461040357610182565b8063313ce5671161013a57806340c10f191161011457806340c10f191461036a57806342966c68146103a357806359e924f5146103c057610182565b8063313ce5671461030b57806339509351146103295780633f4ba83a1461036257610182565b806318160ddd1161016b57806318160ddd146102515780631bcbd64f1461026b57806323b872dd146102c857610182565b806306fdde0314610187578063095ea7b314610204575b600080fd5b61018f610598565b6040805160208082528351818301528351919283929083019185019080838360005b838110156101c95781810151838201526020016101b1565b50505050905090810190601f1680156101f65780820380516001836020036101000a031916815260200191505b509250505060405180910390f35b61023d6004803603604081101561021a57600080fd5b5073ffffffffffffffffffffffffffffffffffffffff813516906020013561064c565b604080519115158252519081900360200190f35b610259610669565b60408051918252519081900360200190f35b6102c6600480360360c081101561028157600080fd5b50803590602081013590604081013573ffffffffffffffffffffffffffffffffffffffff9081169160608101358216916080820135169060a0013562ffffff1661066f565b005b61023d600480360360608110156102de57600080fd5b5073ffffffffffffffffffffffffffffffffffffffff813581169160208101359091169060400135610a1c565b610313610abe565b6040805160ff9092168252519081900360200190f35b61023d6004803603604081101561033f57600080fd5b5073ffffffffffffffffffffffffffffffffffffffff8135169060200135610ac7565b6102c6610b22565b6102c66004803603604081101561038057600080fd5b5073ffffffffffffffffffffffffffffffffffffffff8135169060200135610bd4565b6102c6600480360360208110156103b957600080fd5b5035610c8a565b61023d600480360360408110156103d657600080fd5b5073ffffffffffffffffffffffffffffffffffffffff81358116916020013516610c9e565b61023d610cbc565b6102596004803603602081101561041957600080fd5b503573ffffffffffffffffffffffffffffffffffffffff16610cca565b6102c6610cf2565b6102c66004803603604081101561045457600080fd5b5073ffffffffffffffffffffffffffffffffffffffff8135169060200135610e0f565b6102c6610e69565b610487610f19565b6040805173ffffffffffffffffffffffffffffffffffffffff9092168252519081900360200190f35b61018f610f3b565b61023d600480360360408110156104ce57600080fd5b5073ffffffffffffffffffffffffffffffffffffffff8135169060200135610fba565b61023d6004803603604081101561050757600080fd5b5073ffffffffffffffffffffffffffffffffffffffff813516906020013561102f565b6102596004803603604081101561054057600080fd5b5073ffffffffffffffffffffffffffffffffffffffff81358116916020013516611043565b6102c66004803603602081101561057b57600080fd5b503573ffffffffffffffffffffffffffffffffffffffff1661107b565b60038054604080516020601f60027fffffffffffffffffffffffffffffffffffffffffffffffffffffffffffffffff6101006001881615020190951694909404938401819004810282018101909252828152606093909290918301828280156106425780601f1061061757610100808354040283529160200191610642565b820191906000526020600020905b81548152906001019060200180831161062557829003601f168201915b5050505050905090565b6000610660610659611229565b848461122d565b50600192915050565b60025490565b604080516101008101825273ffffffffffffffffffffffffffffffffffffffff80871682528581166020830181905262ffffff851683850152306060840152633b9aca004201608084015260a083018a905260c0830189905290851660e083015291517f095ea7b300000000000000000000000000000000000000000000000000000000815290919063095ea7b39061072e907f0000000000000000000000000000000000000000000000000000000000000000908a90600401611f7a565b602060405180830381600087803b15801561074857600080fd5b505af115801561075c573d6000803e3d6000fd5b505050506040513d601f19601f820116820180604052508101906107809190611f29565b506040517f095ea7b300000000000000000000000000000000000000000000000000000000815273ffffffffffffffffffffffffffffffffffffffff86169063095ea7b3906107f5907f0000000000000000000000000000000000000000000000000000000000000000908b90600401611f7a565b602060405180830381600087803b15801561080f57600080fd5b505af1158015610823573d6000803e3d6000fd5b505050506040513d601f19601f820116820180604052508101906108479190611f29565b506108876040518060400160405280601b81526020017f54727920746f207472616e7366657220616d6f756e7420696e3a20000000000081525088611374565b6040517f23b872dd00000000000000000000000000000000000000000000000000000000815273ffffffffffffffffffffffffffffffffffffffff8616906323b872dd906108dd90339030908c90600401611f49565b602060405180830381600087803b1580156108f757600080fd5b505af115801561090b573d6000803e3d6000fd5b505050506040513d601f19601f8201168201806040525081019061092f9190611f29565b50610a127f0000000000000000000000000000000000000000000000000000000000000000826040516024016109659190611fa0565b604080517fffffffffffffffffffffffffffffffffffffffffffffffffffffffffffffffe0818403018152918152602080830180517bffffffffffffffffffffffffffffffffffffffffffffffffffffffff167f78095a6e000000000000000000000000000000000000000000000000000000001790528151808301909252601782527f444f4e4154494f4e202d20524f55544552204552524f520000000000000000009082015261146e565b5050505050505050565b6000610a29848484611485565b610ab384610a35611229565b610aae856040518060600160405280602881526020016120f66028913973ffffffffffffffffffffffffffffffffffffffff8a16600090815260016020526040812090610a80611229565b73ffffffffffffffffffffffffffffffffffffffff1681526020810191909152604001600020549190611655565b61122d565b5060015b9392505050565b60055460ff1690565b6000610660610ad4611229565b84610aae8560016000610ae5611229565b73ffffffffffffffffffffffffffffffffffffffff908116825260208083019390935260409182016000908120918c168152925290205490611706565b610b2a611229565b73ffffffffffffffffffffffffffffffffffffffff16610b48610f19565b73ffffffffffffffffffffffffffffffffffffffff1614610bca57604080517f08c379a000000000000000000000000000000000000000000000000000000000815260206004820181905260248201527f4f776e61626c653a2063616c6c6572206973206e6f7420746865206f776e6572604482015290519081900360640190fd5b610bd261177a565b565b610bdc611229565b73ffffffffffffffffffffffffffffffffffffffff16610bfa610f19565b73ffffffffffffffffffffffffffffffffffffffff1614610c7c57604080517f08c379a000000000000000000000000000000000000000000000000000000000815260206004820181905260248201527f4f776e61626c653a2063616c6c6572206973206e6f7420746865206f776e6572604482015290519081900360640190fd5b610c868282611868565b5050565b610c9b610c95611229565b82611999565b50565b73ffffffffffffffffffffffffffffffffffffffff90811691161190565b600554610100900460ff1690565b73ffffffffffffffffffffffffffffffffffffffff1660009081526020819052604090205490565b610cfa611229565b73ffffffffffffffffffffffffffffffffffffffff16610d18610f19565b73ffffffffffffffffffffffffffffffffffffffff1614610d9a57604080517f08c379a000000000000000000000000000000000000000000000000000000000815260206004820181905260248201527f4f776e61626c653a2063616c6c6572206973206e6f7420746865206f776e6572604482015290519081900360640190fd5b60055460405160009162010000900473ffffffffffffffffffffffffffffffffffffffff16907f8be0079c531659141344cd1fd0a4f28419497f9722a3daafe3b4186f6b6457e0908390a3600580547fffffffffffffffffffff0000000000000000000000000000000000000000ffff169055565b6000610e468260405180606001604052806024815260200161211e60249139610e3f86610e3a611229565b611043565b9190611655565b9050610e5a83610e54611229565b8361122d565b610e648383611999565b505050565b610e71611229565b73ffffffffffffffffffffffffffffffffffffffff16610e8f610f19565b73ffffffffffffffffffffffffffffffffffffffff1614610f1157604080517f08c379a000000000000000000000000000000000000000000000000000000000815260206004820181905260248201527f4f776e61626c653a2063616c6c6572206973206e6f7420746865206f776e6572604482015290519081900360640190fd5b610bd2611ae3565b60055462010000900473ffffffffffffffffffffffffffffffffffffffff1690565b60048054604080516020601f60027fffffffffffffffffffffffffffffffffffffffffffffffffffffffffffffffff6101006001881615020190951694909404938401819004810282018101909252828152606093909290918301828280156106425780601f1061061757610100808354040283529160200191610642565b6000610660610fc7611229565b84610aae856040518060600160405280602581526020016121ac6025913960016000610ff1611229565b73ffffffffffffffffffffffffffffffffffffffff908116825260208083019390935260409182016000908120918d16815292529020549190611655565b600061066061103c611229565b8484611485565b73ffffffffffffffffffffffffffffffffffffffff918216600090815260016020908152604080832093909416825291909152205490565b611083611229565b73ffffffffffffffffffffffffffffffffffffffff166110a1610f19565b73ffffffffffffffffffffffffffffffffffffffff161461112357604080517f08c379a000000000000000000000000000000000000000000000000000000000815260206004820181905260248201527f4f776e61626c653a2063616c6c6572206973206e6f7420746865206f776e6572604482015290519081900360640190fd5b73ffffffffffffffffffffffffffffffffffffffff811661118f576040517f08c379a00000000000000000000000000000000000000000000000000000000081526004018080602001828103825260268152602001806120626026913960400191505060405180910390fd5b60055460405173ffffffffffffffffffffffffffffffffffffffff8084169262010000900416907f8be0079c531659141344cd1fd0a4f28419497f9722a3daafe3b4186f6b6457e090600090a36005805473ffffffffffffffffffffffffffffffffffffffff90921662010000027fffffffffffffffffffff0000000000000000000000000000000000000000ffff909216919091179055565b3390565b73ffffffffffffffffffffffffffffffffffffffff8316611299576040517f08c379a00000000000000000000000000000000000000000000000000000000081526004018080602001828103825260248152602001806121886024913960400191505060405180910390fd5b73ffffffffffffffffffffffffffffffffffffffff8216611305576040517f08c379a00000000000000000000000000000000000000000000000000000000081526004018080602001828103825260228152602001806120886022913960400191505060405180910390fd5b73ffffffffffffffffffffffffffffffffffffffff808416600081815260016020908152604080832094871680845294825291829020859055815185815291517f8c5be1e5ebec7d5bd14f71427d1e84f3dd0314c0f7b2291e5b200ac8c7c3b9259281900390910190a3505050565b610c8682826040516024018080602001838152602001828103825284818151815260200191508051906020019080838360005b838110156113bf5781810151838201526020016113a7565b50505050905090810190601f1680156113ec5780820380516001836020036101000a031916815260200191505b50604080517fffffffffffffffffffffffffffffffffffffffffffffffffffffffffffffffe08184030181529190526020810180517bffffffffffffffffffffffffffffffffffffffffffffffffffffffff167f9710a9d0000000000000000000000000000000000000000000000000000000001790529350611bac92505050565b606061147d8484600085611bcd565b949350505050565b73ffffffffffffffffffffffffffffffffffffffff83166114f1576040517f08c379a00000000000000000000000000000000000000000000000000000000081526004018080602001828103825260258152602001806121636025913960400191505060405180910390fd5b73ffffffffffffffffffffffffffffffffffffffff821661155d576040517f08c379a000000000000000000000000000000000000000000000000000000000815260040180806020018281038252602381526020018061201d6023913960400191505060405180910390fd5b611568838383611d87565b6115b2816040518060600160405280602681526020016120aa6026913973ffffffffffffffffffffffffffffffffffffffff86166000908152602081905260409020549190611655565b73ffffffffffffffffffffffffffffffffffffffff80851660009081526020819052604080822093909355908416815220546115ee9082611706565b73ffffffffffffffffffffffffffffffffffffffff8084166000818152602081815260409182902094909455805185815290519193928716927fddf252ad1be2c89b69c2b068fc378daa952ba7f163c4a11628f55a4df523b3ef92918290030190a3505050565b600081848411156116fe576040517f08c379a00000000000000000000000000000000000000000000000000000000081526004018080602001828103825283818151815260200191508051906020019080838360005b838110156116c35781810151838201526020016116ab565b50505050905090810190601f1680156116f05780820380516001836020036101000a031916815260200191505b509250505060405180910390fd5b505050900390565b600082820183811015610ab757604080517f08c379a000000000000000000000000000000000000000000000000000000000815260206004820152601b60248201527f536166654d6174683a206164646974696f6e206f766572666c6f770000000000604482015290519081900360640190fd5b611782610cbc565b6117ed57604080517f08c379a000000000000000000000000000000000000000000000000000000000815260206004820152601460248201527f5061757361626c653a206e6f7420706175736564000000000000000000000000604482015290519081900360640190fd5b600580547fffffffffffffffffffffffffffffffffffffffffffffffffffffffffffff00ff1690557f5db9ee0a495bf2e6ff9c91a7834c1ba4fdd244a5e8aa4e537bd38aeae4b073aa61183e611229565b6040805173ffffffffffffffffffffffffffffffffffffffff9092168252519081900360200190a1565b73ffffffffffffffffffffffffffffffffffffffff82166118ea57604080517f08c379a000000000000000000000000000000000000000000000000000000000815260206004820152601f60248201527f45524332303a206d696e7420746f20746865207a65726f206164647265737300604482015290519081900360640190fd5b6118f660008383611d87565b6002546119039082611706565b60025573ffffffffffffffffffffffffffffffffffffffff82166000908152602081905260409020546119369082611706565b73ffffffffffffffffffffffffffffffffffffffff83166000818152602081815260408083209490945583518581529351929391927fddf252ad1be2c89b69c2b068fc378daa952ba7f163c4a11628f55a4df523b3ef9281900390910190a35050565b73ffffffffffffffffffffffffffffffffffffffff8216611a05576040517f08c379a00000000000000000000000000000000000000000000000000000000081526004018080602001828103825260218152602001806121426021913960400191505060405180910390fd5b611a1182600083611d87565b611a5b816040518060600160405280602281526020016120406022913973ffffffffffffffffffffffffffffffffffffffff85166000908152602081905260409020549190611655565b73ffffffffffffffffffffffffffffffffffffffff8316600090815260208190526040902055600254611a8e9082611e2c565b60025560408051828152905160009173ffffffffffffffffffffffffffffffffffffffff8516917fddf252ad1be2c89b69c2b068fc378daa952ba7f163c4a11628f55a4df523b3ef9181900360200190a35050565b611aeb610cbc565b15611b5757604080517f08c379a000000000000000000000000000000000000000000000000000000000815260206004820152601060248201527f5061757361626c653a2070617573656400000000000000000000000000000000604482015290519081900360640190fd5b600580547fffffffffffffffffffffffffffffffffffffffffffffffffffffffffffff00ff166101001790557f62e78cea01bee320cd4e420270b5ea74000d11b0c9f74754ebdbfc544b05a25861183e611229565b80516a636f6e736f6c652e6c6f67602083016000808483855afa5050505050565b606082471015611c28576040517f08c379a00000000000000000000000000000000000000000000000000000000081526004018080602001828103825260268152602001806120d06026913960400191505060405180910390fd5b611c3185611ea3565b611c9c57604080517f08c379a000000000000000000000000000000000000000000000000000000000815260206004820152601d60248201527f416464726573733a2063616c6c20746f206e6f6e2d636f6e7472616374000000604482015290519081900360640190fd5b6000808673ffffffffffffffffffffffffffffffffffffffff1685876040518082805190602001908083835b60208310611d0557805182527fffffffffffffffffffffffffffffffffffffffffffffffffffffffffffffffe09092019160209182019101611cc8565b6001836020036101000a03801982511681845116808217855250505050505090500191505060006040518083038185875af1925050503d8060008114611d67576040519150601f19603f3d011682016040523d82523d6000602084013e611d6c565b606091505b5091509150611d7c828286611ea9565b979650505050505050565b611d8f610cbc565b15611dfb57604080517f08c379a000000000000000000000000000000000000000000000000000000000815260206004820152601060248201527f5061757361626c653a2070617573656400000000000000000000000000000000604482015290519081900360640190fd5b611e06838383610e64565b73ffffffffffffffffffffffffffffffffffffffff831615610e6457610e648382611868565b600082821115611e9d57604080517f08c379a000000000000000000000000000000000000000000000000000000000815260206004820152601e60248201527f536166654d6174683a207375627472616374696f6e206f766572666c6f770000604482015290519081900360640190fd5b50900390565b3b151590565b60608315611eb8575081610ab7565b825115611ec85782518084602001fd5b6040517f08c379a00000000000000000000000000000000000000000000000000000000081526020600482018181528451602484015284518593919283926044019190850190808383600083156116c35781810151838201526020016116ab565b600060208284031215611f3a578081fd5b81518015158114610ab7578182fd5b73ffffffffffffffffffffffffffffffffffffffff9384168152919092166020820152604081019190915260600190565b73ffffffffffffffffffffffffffffffffffffffff929092168252602082015260400190565b60006101008201905073ffffffffffffffffffffffffffffffffffffffff80845116835280602085015116602084015262ffffff60408501511660408401528060608501511660608401526080840151608084015260a084015160a084015260c084015160c08401528060e08501511660e0840152509291505056fe45524332303a207472616e7366657220746f20746865207a65726f206164647265737345524332303a206275726e20616d6f756e7420657863656564732062616c616e63654f776e61626c653a206e6577206f776e657220697320746865207a65726f206164647265737345524332303a20617070726f766520746f20746865207a65726f206164647265737345524332303a207472616e7366657220616d6f756e7420657863656564732062616c616e6365416464726573733a20696e73756666696369656e742062616c616e636520666f722063616c6c45524332303a207472616e7366657220616d6f756e74206578636565647320616c6c6f77616e636545524332303a206275726e20616d6f756e74206578636565647320616c6c6f77616e636545524332303a206275726e2066726f6d20746865207a65726f206164647265737345524332303a207472616e736665722066726f6d20746865207a65726f206164647265737345524332303a20617070726f76652066726f6d20746865207a65726f206164647265737345524332303a2064656372656173656420616c6c6f77616e63652062656c6f77207a65726fa164736f6c6343000706000a",
  "linkReferences": {},
  "deployedLinkReferences": {}
}