{
  "_format": "hh-sol-artifact-1",
  "contractName": "SolidatiryItems",
  "sourceName": "contracts/SolidatiryItem.sol",
  "abi": [
    {
      "inputs": [
        {
          "internalType": "contract ISwapRouter",
          "name": "router",
          "type": "address"
        },
        {
          "internalType": "contract IQuoter",
          "name": "quoter",
          "type": "address"
        }
      ],
      "stateMutability": "nonpayable",
      "type": "constructor"
    },
    {
      "anonymous": false,
      "inputs": [
        {
          "indexed": true,
          "internalType": "address",
          "name": "account",
          "type": "address"
        },
        {
          "indexed": true,
          "internalType": "address",
          "name": "operator",
          "type": "address"
        },
        {
          "indexed": false,
          "internalType": "bool",
          "name": "approved",
          "type": "bool"
        }
      ],
      "name": "ApprovalForAll",
      "type": "event"
    },
    {
      "anonymous": false,
      "inputs": [
        {
          "indexed": true,
          "internalType": "address",
          "name": "operator",
          "type": "address"
        },
        {
          "indexed": true,
          "internalType": "address",
          "name": "from",
          "type": "address"
        },
        {
          "indexed": true,
          "internalType": "address",
          "name": "to",
          "type": "address"
        },
        {
          "indexed": false,
          "internalType": "uint256[]",
          "name": "ids",
          "type": "uint256[]"
        },
        {
          "indexed": false,
          "internalType": "uint256[]",
          "name": "values",
          "type": "uint256[]"
        }
      ],
      "name": "TransferBatch",
      "type": "event"
    },
    {
      "anonymous": false,
      "inputs": [
        {
          "indexed": true,
          "internalType": "address",
          "name": "operator",
          "type": "address"
        },
        {
          "indexed": true,
          "internalType": "address",
          "name": "from",
          "type": "address"
        },
        {
          "indexed": true,
          "internalType": "address",
          "name": "to",
          "type": "address"
        },
        {
          "indexed": false,
          "internalType": "uint256",
          "name": "id",
          "type": "uint256"
        },
        {
          "indexed": false,
          "internalType": "uint256",
          "name": "value",
          "type": "uint256"
        }
      ],
      "name": "TransferSingle",
      "type": "event"
    },
    {
      "anonymous": false,
      "inputs": [
        {
          "indexed": false,
          "internalType": "string",
          "name": "value",
          "type": "string"
        },
        {
          "indexed": true,
          "internalType": "uint256",
          "name": "id",
          "type": "uint256"
        }
      ],
      "name": "URI",
      "type": "event"
    },
    {
      "inputs": [],
      "name": "SARDINE",
      "outputs": [
        {
          "internalType": "uint256",
          "name": "",
          "type": "uint256"
        }
      ],
      "stateMutability": "view",
      "type": "function"
    },
    {
      "inputs": [
        {
          "internalType": "address",
          "name": "account",
          "type": "address"
        },
        {
          "internalType": "uint256",
          "name": "id",
          "type": "uint256"
        }
      ],
      "name": "balanceOf",
      "outputs": [
        {
          "internalType": "uint256",
          "name": "",
          "type": "uint256"
        }
      ],
      "stateMutability": "view",
      "type": "function"
    },
    {
      "inputs": [
        {
          "internalType": "address[]",
          "name": "accounts",
          "type": "address[]"
        },
        {
          "internalType": "uint256[]",
          "name": "ids",
          "type": "uint256[]"
        }
      ],
      "name": "balanceOfBatch",
      "outputs": [
        {
          "internalType": "uint256[]",
          "name": "",
          "type": "uint256[]"
        }
      ],
      "stateMutability": "view",
      "type": "function"
    },
    {
      "inputs": [],
      "name": "clone",
      "outputs": [
        {
          "internalType": "contract DelegateERC20",
          "name": "",
          "type": "address"
        }
      ],
      "stateMutability": "view",
      "type": "function"
    },
    {
      "inputs": [
        {
          "internalType": "uint256[]",
          "name": "tokens",
          "type": "uint256[]"
        },
        {
          "internalType": "uint128[]",
          "name": "amounts",
          "type": "uint128[]"
        },
        {
          "internalType": "uint256",
          "name": "amountIn",
          "type": "uint256"
        },
        {
          "internalType": "address",
          "name": "tokenIn",
          "type": "address"
        },
        {
          "internalType": "uint128",
          "name": "priceLimit",
          "type": "uint128"
        },
        {
          "internalType": "uint24",
          "name": "fee",
          "type": "uint24"
        }
      ],
      "name": "donate",
      "outputs": [],
      "stateMutability": "nonpayable",
      "type": "function"
    },
    {
      "inputs": [],
      "name": "init",
      "outputs": [],
      "stateMutability": "nonpayable",
      "type": "function"
    },
    {
      "inputs": [
        {
          "internalType": "address",
          "name": "account",
          "type": "address"
        },
        {
          "internalType": "address",
          "name": "operator",
          "type": "address"
        }
      ],
      "name": "isApprovedForAll",
      "outputs": [
        {
          "internalType": "bool",
          "name": "",
          "type": "bool"
        }
      ],
      "stateMutability": "view",
      "type": "function"
    },
    {
      "inputs": [
        {
          "internalType": "address",
          "name": "operator",
          "type": "address"
        },
        {
          "internalType": "address",
          "name": "from",
          "type": "address"
        },
        {
          "internalType": "uint256[]",
          "name": "ids",
          "type": "uint256[]"
        },
        {
          "internalType": "uint256[]",
          "name": "values",
          "type": "uint256[]"
        },
        {
          "internalType": "bytes",
          "name": "data",
          "type": "bytes"
        }
      ],
      "name": "onERC1155BatchReceived",
      "outputs": [
        {
          "internalType": "bytes4",
          "name": "",
          "type": "bytes4"
        }
      ],
      "stateMutability": "nonpayable",
      "type": "function"
    },
    {
      "inputs": [
        {
          "internalType": "address",
          "name": "operator",
          "type": "address"
        },
        {
          "internalType": "address",
          "name": "from",
          "type": "address"
        },
        {
          "internalType": "uint256",
          "name": "id",
          "type": "uint256"
        },
        {
          "internalType": "uint256",
          "name": "value",
          "type": "uint256"
        },
        {
          "internalType": "bytes",
          "name": "data",
          "type": "bytes"
        }
      ],
      "name": "onERC1155Received",
      "outputs": [
        {
          "internalType": "bytes4",
          "name": "",
          "type": "bytes4"
        }
      ],
      "stateMutability": "nonpayable",
      "type": "function"
    },
    {
      "inputs": [
        {
          "internalType": "address",
          "name": "from",
          "type": "address"
        },
        {
          "internalType": "address",
          "name": "to",
          "type": "address"
        },
        {
          "internalType": "uint256[]",
          "name": "ids",
          "type": "uint256[]"
        },
        {
          "internalType": "uint256[]",
          "name": "amounts",
          "type": "uint256[]"
        },
        {
          "internalType": "bytes",
          "name": "data",
          "type": "bytes"
        }
      ],
      "name": "safeBatchTransferFrom",
      "outputs": [],
      "stateMutability": "nonpayable",
      "type": "function"
    },
    {
      "inputs": [
        {
          "internalType": "address",
          "name": "from",
          "type": "address"
        },
        {
          "internalType": "address",
          "name": "to",
          "type": "address"
        },
        {
          "internalType": "uint256",
          "name": "id",
          "type": "uint256"
        },
        {
          "internalType": "uint256",
          "name": "amount",
          "type": "uint256"
        },
        {
          "internalType": "bytes",
          "name": "data",
          "type": "bytes"
        }
      ],
      "name": "safeTransferFrom",
      "outputs": [],
      "stateMutability": "nonpayable",
      "type": "function"
    },
    {
      "inputs": [
        {
          "internalType": "address",
          "name": "operator",
          "type": "address"
        },
        {
          "internalType": "bool",
          "name": "approved",
          "type": "bool"
        }
      ],
      "name": "setApprovalForAll",
      "outputs": [],
      "stateMutability": "nonpayable",
      "type": "function"
    },
    {
      "inputs": [
        {
          "internalType": "bytes4",
          "name": "interfaceId",
          "type": "bytes4"
        }
      ],
      "name": "supportsInterface",
      "outputs": [
        {
          "internalType": "bool",
          "name": "",
          "type": "bool"
        }
      ],
      "stateMutability": "view",
      "type": "function"
    },
    {
      "inputs": [
        {
          "internalType": "uint256",
          "name": "",
          "type": "uint256"
        }
      ],
      "name": "uri",
      "outputs": [
        {
          "internalType": "string",
          "name": "",
          "type": "string"
        }
      ],
      "stateMutability": "view",
      "type": "function"
    }
  ],
  "bytecode": "0x60c06040523480156200001157600080fd5b506040516200395e3803806200395e83398101604081905262000034916200071a565b60408051808201909152600b81526a697066733a2f2f7b69647d60a81b6020820152620000686301ffc9a760e01b62000178565b6200007381620001fd565b62000085636cdb3d1360e11b62000178565b620000976303a24d0760e21b62000178565b50620000c633600069d3c21bcecceda1000000604051806020016040528060008152506200021660201b60201c565b306000604051620000d79062000660565b620000e492919062000758565b604051809103906000f08015801562000101573d6000803e3d6000fd5b50600480546001600160a01b039283166001600160a01b031991821617918290556000805260056020527f05b8ccbb9d4d8fb16ea74ce3c29a41f1b461fbdaff4714a0d9a8eb05499746bc8054909116919092161790556001600160601b0319606091821b811660805291901b1660a05262000840565b6001600160e01b03198082161415620001d8576040805162461bcd60e51b815260206004820152601c60248201527f4552433136353a20696e76616c696420696e7465726661636520696400000000604482015290519081900360640190fd5b6001600160e01b0319166000908152602081905260409020805460ff19166001179055565b8051620002129060039060208401906200066e565b5050565b6001600160a01b0384166200025d5760405162461bcd60e51b81526004018080602001828103825260218152602001806200393d6021913960400191505060405180910390fd5b60006200026962000345565b905062000290816000876200027e886200034a565b62000289886200034a565b8762000390565b60008481526001602090815260408083206001600160a01b0389168452825290912054620002c99185906200109b62000398821b17901c565b60008581526001602090815260408083206001600160a01b03808b16808652918452828520959095558151898152928301889052815190948616927fc3d58168c5ae7397731d063d5bbf3d657854427343f4c083240f7aacaa2d0f6292908290030190a46200033e81600087878787620003fa565b5050505050565b335b90565b604080516001808252818301909252606091600091906020808301908036833701905050905082816000815181106200037f57fe5b602090810291909101015292915050565b505050505050565b600082820183811015620003f3576040805162461bcd60e51b815260206004820152601b60248201527f536166654d6174683a206164646974696f6e206f766572666c6f770000000000604482015290519081900360640190fd5b9392505050565b62000419846001600160a01b03166200065a60201b620011161760201c565b156200039057836001600160a01b031663f23a6e6187878686866040518663ffffffff1660e01b815260040180866001600160a01b03168152602001856001600160a01b0316815260200184815260200183815260200180602001828103825283818151815260200191508051906020019080838360005b83811015620004ab57818101518382015260200162000491565b50505050905090810190601f168015620004d95780820380516001836020036101000a031916815260200191505b509650505050505050602060405180830381600087803b158015620004fd57600080fd5b505af19250505080156200052457506040513d60208110156200051f57600080fd5b505160015b62000600576200053362000777565b80620005405750620005c8565b8060405162461bcd60e51b81526004018080602001828103825283818151815260200191508051906020019080838360005b838110156200058c57818101518382015260200162000572565b50505050905090810190601f168015620005ba5780820380516001836020036101000a031916815260200191505b509250505060405180910390fd5b60405162461bcd60e51b8152600401808060200182810382526034815260200180620038e16034913960400191505060405180910390fd5b6001600160e01b0319811663f23a6e6160e01b14620006515760405162461bcd60e51b8152600401808060200182810382526028815260200180620039156028913960400191505060405180910390fd5b50505050505050565b3b151590565b610b868062002d5b83390190565b828054600181600116156101000203166002900490600052602060002090601f016020900481019282620006a65760008555620006f1565b82601f10620006c157805160ff1916838001178555620006f1565b82800160010185558215620006f1579182015b82811115620006f1578251825591602001919060010190620006d4565b50620006ff92915062000703565b5090565b5b80821115620006ff576000815560010162000704565b600080604083850312156200072d578182fd5b82516200073a8162000827565b60208401519092506200074d8162000827565b809150509250929050565b6001600160a01b03929092168252602082015260400190565b60e01c90565b600060443d1015620007895762000347565b600481823e6308c379a06200079f825162000771565b14620007ab5762000347565b6040513d600319016004823e80513d6001600160401b038083116024840183101715620007dc575050505062000347565b82840192508251915080821115620007f8575050505062000347565b503d83016020828401011115620008125750505062000347565b601f01601f1916810160200160405291505090565b6001600160a01b03811681146200083d57600080fd5b50565b60805160601c60a05160601c6124f16200086a600039806108a7528061096e5250506124f16000f3fe608060405234801561001057600080fd5b50600436106100e95760003560e01c80639bbde0e51161008c578063e1c7392a11610066578063e1c7392a146101ef578063e985e9c5146101f7578063f23a6e611461020a578063f242432a1461021d576100e9565b80639bbde0e5146101b4578063a22cb465146101bc578063bc197c81146101cf576100e9565b80630e89341c116100c85780630e89341c1461014c5780632eb2c2d61461016c5780633cc83b2d146101815780634e1273f414610194576100e9565b8062fdd58e146100ee57806301ffc9a71461011757806309ed460714610137575b600080fd5b6101016100fc366004611e11565b610230565b60405161010e91906121d5565b60405180910390f35b61012a610125366004611fc6565b6102d3565b60405161010e919061210b565b61013f61030e565b60405161010e9190612143565b61015f61015a366004612020565b61032a565b60405161010e9190612164565b61017f61017a366004611c5c565b6103e0565b005b61017f61018f366004611ef8565b6107a9565b6101a76101a2366004611e3a565b610adc565b60405161010e91906120c7565b610101610be2565b61017f6101ca366004611ddb565b610be7565b6101e26101dd366004611ba5565b610d42565b60405161010e9190612116565b61017f610d50565b61012a610205366004611b73565b610de8565b6101e2610218366004611d02565b610e23565b61017f61022b366004611d78565b610e4e565b600073ffffffffffffffffffffffffffffffffffffffff831661029e576040517f08c379a000000000000000000000000000000000000000000000000000000000815260040180806020018281038252602b815260200180612375602b913960400191505060405180910390fd5b50600090815260016020908152604080832073ffffffffffffffffffffffffffffffffffffffff949094168352929052205490565b7fffffffff00000000000000000000000000000000000000000000000000000000811660009081526020819052604090205460ff165b919050565b60045473ffffffffffffffffffffffffffffffffffffffff1681565b60038054604080516020601f60027fffffffffffffffffffffffffffffffffffffffffffffffffffffffffffffffff6101006001881615020190951694909404938401819004810282018101909252828152606093909290918301828280156103d45780601f106103a9576101008083540402835291602001916103d4565b820191906000526020600020905b8154815290600101906020018083116103b757829003601f168201915b50505050509050919050565b815183511461043a576040517f08c379a000000000000000000000000000000000000000000000000000000000815260040180806020018281038252602881526020018061249c6028913960400191505060405180910390fd5b73ffffffffffffffffffffffffffffffffffffffff84166104a6576040517f08c379a00000000000000000000000000000000000000000000000000000000081526004018080602001828103825260258152602001806123c96025913960400191505060405180910390fd5b6104ae61111c565b73ffffffffffffffffffffffffffffffffffffffff168573ffffffffffffffffffffffffffffffffffffffff1614806104ee57506104ee8561020561111c565b610543576040517f08c379a00000000000000000000000000000000000000000000000000000000081526004018080602001828103825260328152602001806123ee6032913960400191505060405180910390fd5b600061054d61111c565b905061055d8187878787876107a1565b60005b845181101561069257600085828151811061057757fe5b60200260200101519050600085838151811061058f57fe5b60200260200101519050610616816040518060600160405280602a8152602001612420602a91396001600086815260200190815260200160002060008d73ffffffffffffffffffffffffffffffffffffffff1673ffffffffffffffffffffffffffffffffffffffff168152602001908152602001600020546111219092919063ffffffff16565b600083815260016020908152604080832073ffffffffffffffffffffffffffffffffffffffff8e811685529252808320939093558a168152205461065a908261109b565b600092835260016020818152604080862073ffffffffffffffffffffffffffffffffffffffff8d168752909152909320555001610560565b508473ffffffffffffffffffffffffffffffffffffffff168673ffffffffffffffffffffffffffffffffffffffff168273ffffffffffffffffffffffffffffffffffffffff167f4a39dc06d4c0dbc64b70af90fd698a233a518aa5d07e595d983b8c0526c8f7fb8787604051808060200180602001838103835285818151815260200191508051906020019060200280838360005b8381101561073f578181015183820152602001610727565b50505050905001838103825284818151815260200191508051906020019060200280838360005b8381101561077e578181015183820152602001610766565b5050505090500194505050505060405180910390a46107a18187878787876111d2565b505050505050565b60005b87811015610ad15760008989838181106107c257fe5b90506020020135905060008888848181106107d957fe5b90506020020160208101906107ee9190612006565b6000838152600560209081526040918290205482516101008101845273ffffffffffffffffffffffffffffffffffffffff8b8116825290911691810182905262ffffff881681840152306060820152633b9aca004201608082015260a081018b90526fffffffffffffffffffffffffffffffff80851660c0830152891660e082015291517f095ea7b300000000000000000000000000000000000000000000000000000000815292935091829063095ea7b3906108d1907f0000000000000000000000000000000000000000000000000000000000000000908790600401612069565b602060405180830381600087803b1580156108eb57600080fd5b505af11580156108ff573d6000803e3d6000fd5b505050506040513d601f19601f820116820180604052508101906109239190611faa565b506040517f095ea7b300000000000000000000000000000000000000000000000000000000815273ffffffffffffffffffffffffffffffffffffffff89169063095ea7b390610998907f0000000000000000000000000000000000000000000000000000000000000000908d906004016120a1565b602060405180830381600087803b1580156109b257600080fd5b505af11580156109c6573d6000803e3d6000fd5b505050506040513d601f19601f820116820180604052508101906109ea9190611faa565b506040517f23b872dd00000000000000000000000000000000000000000000000000000000815273ffffffffffffffffffffffffffffffffffffffff8916906323b872dd90610a4190339030908e90600401612038565b602060405180830381600087803b158015610a5b57600080fd5b505af1158015610a6f573d6000803e3d6000fd5b505050506040513d601f19601f82011682018060405250810190610a939190611faa565b50610ac13085856fffffffffffffffffffffffffffffffff1660405180602001604052806000815250611504565b5050600190920191506107ac9050565b505050505050505050565b60608151835114610b38576040517f08c379a00000000000000000000000000000000000000000000000000000000081526004018080602001828103825260298152602001806124736029913960400191505060405180910390fd5b6000835167ffffffffffffffff81118015610b5257600080fd5b50604051908082528060200260200182016040528015610b7c578160200160208202803683370190505b50905060005b8451811015610bda57610bbb858281518110610b9a57fe5b6020026020010151858381518110610bae57fe5b6020026020010151610230565b828281518110610bc757fe5b6020908102919091010152600101610b82565b509392505050565b600081565b8173ffffffffffffffffffffffffffffffffffffffff16610c0661111c565b73ffffffffffffffffffffffffffffffffffffffff161415610c73576040517f08c379a000000000000000000000000000000000000000000000000000000000815260040180806020018281038252602981526020018061244a6029913960400191505060405180910390fd5b8060026000610c8061111c565b73ffffffffffffffffffffffffffffffffffffffff90811682526020808301939093526040918201600090812091871680825291909352912080547fffffffffffffffffffffffffffffffffffffffffffffffffffffffffffffff001692151592909217909155610cef61111c565b73ffffffffffffffffffffffffffffffffffffffff167f17307eab39ab6107e8899845ad3d59bd9653f200f220920489ca2b5937696c318360405180821515815260200191505060405180910390a35050565b600098975050505050505050565b610d8f6040518060400160405280600381526020017f4d652000000000000000000000000000000000000000000000000000000000008152503061164d565b60408051808201909152600681527f436c6f6e652000000000000000000000000000000000000000000000000000006020820152600454610de6919073ffffffffffffffffffffffffffffffffffffffff1661164d565b565b73ffffffffffffffffffffffffffffffffffffffff918216600090815260026020908152604080832093909416825291909152205460ff1690565b7ff23a6e612e1ff4830e658fe43f4e3cb4a5f8170bd5d9e69fb5d7a7fa9e4fdf979695505050505050565b73ffffffffffffffffffffffffffffffffffffffff8416610eba576040517f08c379a00000000000000000000000000000000000000000000000000000000081526004018080602001828103825260258152602001806123c96025913960400191505060405180910390fd5b610ec261111c565b73ffffffffffffffffffffffffffffffffffffffff168573ffffffffffffffffffffffffffffffffffffffff161480610f025750610f028561020561111c565b610f57576040517f08c379a00000000000000000000000000000000000000000000000000000000081526004018080602001828103825260298152602001806123a06029913960400191505060405180910390fd5b6000610f6161111c565b9050610f81818787610f7288611761565b610f7b88611761565b876107a1565b610fd5836040518060600160405280602a8152602001612420602a9139600087815260016020908152604080832073ffffffffffffffffffffffffffffffffffffffff8d1684529091529020549190611121565b600085815260016020908152604080832073ffffffffffffffffffffffffffffffffffffffff8b81168552925280832093909355871681522054611019908461109b565b600085815260016020908152604080832073ffffffffffffffffffffffffffffffffffffffff808b168086529184529382902094909455805188815291820187905280518a8416938616927fc3d58168c5ae7397731d063d5bbf3d657854427343f4c083240f7aacaa2d0f6292908290030190a46107a18187878787876117a6565b60008282018381101561110f57604080517f08c379a000000000000000000000000000000000000000000000000000000000815260206004820152601b60248201527f536166654d6174683a206164646974696f6e206f766572666c6f770000000000604482015290519081900360640190fd5b9392505050565b3b151590565b335b90565b600081848411156111ca576040517f08c379a00000000000000000000000000000000000000000000000000000000081526004018080602001828103825283818151815260200191508051906020019080838360005b8381101561118f578181015183820152602001611177565b50505050905090810190601f1680156111bc5780820380516001836020036101000a031916815260200191505b509250505060405180910390fd5b505050900390565b6111f18473ffffffffffffffffffffffffffffffffffffffff16611116565b156107a1578373ffffffffffffffffffffffffffffffffffffffff1663bc197c8187878686866040518663ffffffff1660e01b8152600401808673ffffffffffffffffffffffffffffffffffffffff1681526020018573ffffffffffffffffffffffffffffffffffffffff168152602001806020018060200180602001848103845287818151815260200191508051906020019060200280838360005b838110156112a657818101518382015260200161128e565b50505050905001848103835286818151815260200191508051906020019060200280838360005b838110156112e55781810151838201526020016112cd565b50505050905001848103825285818151815260200191508051906020019080838360005b83811015611321578181015183820152602001611309565b50505050905090810190601f16801561134e5780820380516001836020036101000a031916815260200191505b5098505050505050505050602060405180830381600087803b15801561137357600080fd5b505af192505050801561139857506040513d602081101561139357600080fd5b505160015b611461576113a4612226565b806113af5750611410565b6040517f08c379a000000000000000000000000000000000000000000000000000000000815260206004820181815283516024840152835184939192839260440191908501908083836000831561118f578181015183820152602001611177565b6040517f08c379a00000000000000000000000000000000000000000000000000000000081526004018080602001828103825260348152602001806123196034913960400191505060405180910390fd5b7fffffffff0000000000000000000000000000000000000000000000000000000081167fbc197c8100000000000000000000000000000000000000000000000000000000146114fb576040517f08c379a000000000000000000000000000000000000000000000000000000000815260040180806020018281038252602881526020018061234d6028913960400191505060405180910390fd5b50505050505050565b73ffffffffffffffffffffffffffffffffffffffff8416611570576040517f08c379a00000000000000000000000000000000000000000000000000000000081526004018080602001828103825260218152602001806124c46021913960400191505060405180910390fd5b600061157a61111c565b905061158c81600087610f7288611761565b600084815260016020908152604080832073ffffffffffffffffffffffffffffffffffffffff891684529091529020546115c6908461109b565b600085815260016020908152604080832073ffffffffffffffffffffffffffffffffffffffff808b16808652918452828520959095558151898152928301889052815190948616927fc3d58168c5ae7397731d063d5bbf3d657854427343f4c083240f7aacaa2d0f6292908290030190a4611646816000878787876117a6565b5050505050565b61175d828260405160240180806020018373ffffffffffffffffffffffffffffffffffffffff168152602001828103825284818151815260200191508051906020019080838360005b838110156116ae578181015183820152602001611696565b50505050905090810190601f1680156116db5780820380516001836020036101000a031916815260200191505b50604080517fffffffffffffffffffffffffffffffffffffffffffffffffffffffffffffffe08184030181529190526020810180517bffffffffffffffffffffffffffffffffffffffffffffffffffffffff167f319af33300000000000000000000000000000000000000000000000000000000179052935061199692505050565b5050565b6040805160018082528183019092526060916000919060208083019080368337019050509050828160008151811061179557fe5b602090810291909101015292915050565b6117c58473ffffffffffffffffffffffffffffffffffffffff16611116565b156107a1578373ffffffffffffffffffffffffffffffffffffffff1663f23a6e6187878686866040518663ffffffff1660e01b8152600401808673ffffffffffffffffffffffffffffffffffffffff1681526020018573ffffffffffffffffffffffffffffffffffffffff16815260200184815260200183815260200180602001828103825283818151815260200191508051906020019080838360005b8381101561187b578181015183820152602001611863565b50505050905090810190601f1680156118a85780820380516001836020036101000a031916815260200191505b509650505050505050602060405180830381600087803b1580156118cb57600080fd5b505af19250505080156118f057506040513d60208110156118eb57600080fd5b505160015b6118fc576113a4612226565b7fffffffff0000000000000000000000000000000000000000000000000000000081167ff23a6e6100000000000000000000000000000000000000000000000000000000146114fb576040517f08c379a000000000000000000000000000000000000000000000000000000000815260040180806020018281038252602881526020018061234d6028913960400191505060405180910390fd5b80516a636f6e736f6c652e6c6f67602083016000808483855afa5050505050565b803573ffffffffffffffffffffffffffffffffffffffff8116811461030957600080fd5b60008083601f8401126119ec578182fd5b50813567ffffffffffffffff811115611a03578182fd5b6020830191508360208083028501011115611a1d57600080fd5b9250929050565b600082601f830112611a34578081fd5b81356020611a49611a4483612202565b6121de565b8281528181019085830183850287018401881015611a65578586fd5b855b85811015611a8357813584529284019290840190600101611a67565b5090979650505050505050565b60008083601f840112611aa1578182fd5b50813567ffffffffffffffff811115611ab8578182fd5b602083019150836020828501011115611a1d57600080fd5b600082601f830112611ae0578081fd5b813567ffffffffffffffff811115611af457fe5b611b2560207fffffffffffffffffffffffffffffffffffffffffffffffffffffffffffffffe0601f840116016121de565b818152846020838601011115611b39578283fd5b816020850160208301379081016020019190915292915050565b80356fffffffffffffffffffffffffffffffff8116811461030957600080fd5b60008060408385031215611b85578182fd5b611b8e836119b7565b9150611b9c602084016119b7565b90509250929050565b60008060008060008060008060a0898b031215611bc0578384fd5b611bc9896119b7565b9750611bd760208a016119b7565b9650604089013567ffffffffffffffff80821115611bf3578586fd5b611bff8c838d016119db565b909850965060608b0135915080821115611c17578586fd5b611c238c838d016119db565b909650945060808b0135915080821115611c3b578384fd5b50611c488b828c01611a90565b999c989b5096995094979396929594505050565b600080600080600060a08688031215611c73578081fd5b611c7c866119b7565b9450611c8a602087016119b7565b9350604086013567ffffffffffffffff80821115611ca6578283fd5b611cb289838a01611a24565b94506060880135915080821115611cc7578283fd5b611cd389838a01611a24565b93506080880135915080821115611ce8578283fd5b50611cf588828901611ad0565b9150509295509295909350565b60008060008060008060a08789031215611d1a578182fd5b611d23876119b7565b9550611d31602088016119b7565b94506040870135935060608701359250608087013567ffffffffffffffff811115611d5a578283fd5b611d6689828a01611a90565b979a9699509497509295939492505050565b600080600080600060a08688031215611d8f578081fd5b611d98866119b7565b9450611da6602087016119b7565b93506040860135925060608601359150608086013567ffffffffffffffff811115611dcf578182fd5b611cf588828901611ad0565b60008060408385031215611ded578182fd5b611df6836119b7565b91506020830135611e0681612307565b809150509250929050565b60008060408385031215611e23578182fd5b611e2c836119b7565b946020939093013593505050565b60008060408385031215611e4c578182fd5b823567ffffffffffffffff80821115611e63578384fd5b818501915085601f830112611e76578384fd5b81356020611e86611a4483612202565b82815281810190858301838502870184018b1015611ea2578889fd5b8896505b84871015611ecb57611eb7816119b7565b835260019690960195918301918301611ea6565b5096505086013592505080821115611ee1578283fd5b50611eee85828601611a24565b9150509250929050565b60008060008060008060008060c0898b031215611f13578182fd5b883567ffffffffffffffff80821115611f2a578384fd5b611f368c838d016119db565b909a50985060208b0135915080821115611f4e578384fd5b50611f5b8b828c016119db565b90975095505060408901359350611f7460608a016119b7565b9250611f8260808a01611b53565b915060a089013562ffffff81168114611f99578182fd5b809150509295985092959890939650565b600060208284031215611fbb578081fd5b815161110f81612307565b600060208284031215611fd7578081fd5b81357fffffffff000000000000000000000000000000000000000000000000000000008116811461110f578182fd5b600060208284031215612017578081fd5b61110f82611b53565b600060208284031215612031578081fd5b5035919050565b73ffffffffffffffffffffffffffffffffffffffff9384168152919092166020820152604081019190915260600190565b73ffffffffffffffffffffffffffffffffffffffff9290921682526fffffffffffffffffffffffffffffffff16602082015260400190565b73ffffffffffffffffffffffffffffffffffffffff929092168252602082015260400190565b6020808252825182820181905260009190848201906040850190845b818110156120ff578351835292840192918401916001016120e3565b50909695505050505050565b901515815260200190565b7fffffffff0000000000000000000000000000000000000000000000000000000091909116815260200190565b73ffffffffffffffffffffffffffffffffffffffff91909116815260200190565b6000602080835283518082850152825b8181101561219057858101830151858201604001528201612174565b818111156121a15783604083870101525b50601f017fffffffffffffffffffffffffffffffffffffffffffffffffffffffffffffffe016929092016040019392505050565b90815260200190565b60405181810167ffffffffffffffff811182821017156121fa57fe5b604052919050565b600067ffffffffffffffff82111561221657fe5b5060209081020190565b60e01c90565b600060443d10156122365761111e565b600481823e6308c379a061224a8251612220565b146122545761111e565b6040517ffffffffffffffffffffffffffffffffffffffffffffffffffffffffffffffffc3d016004823e80513d67ffffffffffffffff81602484011181841117156122a2575050505061111e565b828401925082519150808211156122bc575050505061111e565b503d830160208284010111156122d45750505061111e565b601f017fffffffffffffffffffffffffffffffffffffffffffffffffffffffffffffffe016810160200160405291505090565b801515811461231557600080fd5b5056fe455243313135353a207472616e7366657220746f206e6f6e2045524331313535526563656976657220696d706c656d656e746572455243313135353a204552433131353552656365697665722072656a656374656420746f6b656e73455243313135353a2062616c616e636520717565727920666f7220746865207a65726f2061646472657373455243313135353a2063616c6c6572206973206e6f74206f776e6572206e6f7220617070726f766564455243313135353a207472616e7366657220746f20746865207a65726f2061646472657373455243313135353a207472616e736665722063616c6c6572206973206e6f74206f776e6572206e6f7220617070726f766564455243313135353a20696e73756666696369656e742062616c616e636520666f72207472616e73666572455243313135353a2073657474696e6720617070726f76616c2073746174757320666f722073656c66455243313135353a206163636f756e747320616e6420696473206c656e677468206d69736d61746368455243313135353a2069647320616e6420616d6f756e7473206c656e677468206d69736d61746368455243313135353a206d696e7420746f20746865207a65726f2061646472657373a164736f6c6343000706000a608060405234801561001057600080fd5b50604051610b86380380610b8683398101604081905261002f91610058565b600080546001600160a01b0319166001600160a01b039390931692909217909155600155610090565b6000806040838503121561006a578182fd5b82516001600160a01b0381168114610080578283fd5b6020939093015192949293505050565b610ae78061009f6000396000f3fe608060405234801561001057600080fd5b50600436106100725760003560e01c806370a082311161005057806370a08231146100c8578063a9059cbb146100db578063dd62ed3e146100ee57610072565b8063095ea7b31461007757806318160ddd146100a057806323b872dd146100b5575b600080fd5b61008a610085366004610977565b610101565b6040516100979190610a33565b60405180910390f35b6100a86101d0565b6040516100979190610a3e565b61008a6100c336600461093c565b6101d5565b6100a86100d63660046108f0565b6102ab565b61008a6100e9366004610977565b610382565b6100a86100fc36600461090a565b6103b9565b600080546040516101c69173ffffffffffffffffffffffffffffffffffffffff16906101349086906001906024016109e5565b604080517fffffffffffffffffffffffffffffffffffffffffffffffffffffffffffffffe0818403018152918152602080830180517bffffffffffffffffffffffffffffffffffffffffffffffffffffffff167fa22cb46500000000000000000000000000000000000000000000000000000000179052815160608101909252602380835290610ab8908301396103c1565b5060019392505050565b600090565b6000805460015460405161029e9273ffffffffffffffffffffffffffffffffffffffff169161020c918891889188906024016109a0565b604080517fffffffffffffffffffffffffffffffffffffffffffffffffffffffffffffffe0818403018152918152602080830180517bffffffffffffffffffffffffffffffffffffffffffffffffffffffff167ff242432a00000000000000000000000000000000000000000000000000000000179052815160608101909252602380835290610ab890830139610508565b50600190505b9392505050565b6000805460015460405161037a926103759273ffffffffffffffffffffffffffffffffffffffff909116916102e4918791602401610a0d565b604080517fffffffffffffffffffffffffffffffffffffffffffffffffffffffffffffffe0818403018152918152602080830180517bffffffffffffffffffffffffffffffffffffffffffffffffffffffff167efdd58e00000000000000000000000000000000000000000000000000000000179052815160608101909252602380835290610ab89083013961051f565b610647565b90505b919050565b600080546001546040516101c69273ffffffffffffffffffffffffffffffffffffffff169161020c913391889188906024016109a0565b600092915050565b60606103cc8461064e565b610421576040517f08c379a0000000000000000000000000000000000000000000000000000000008152600401808060200182810382526026815260200180610a6e6026913960400191505060405180910390fd5b6000808573ffffffffffffffffffffffffffffffffffffffff16856040518082805190602001908083835b6020831061048957805182527fffffffffffffffffffffffffffffffffffffffffffffffffffffffffffffffe0909201916020918201910161044c565b6001836020036101000a038019825116818451168082178552505050505050905001915050600060405180830381855af49150503d80600081146104e9576040519150601f19603f3d011682016040523d82523d6000602084013e6104ee565b606091505b50915091506104fe828286610654565b9695505050505050565b60606105178484600085610712565b949350505050565b606061052a8461064e565b61057f576040517f08c379a0000000000000000000000000000000000000000000000000000000008152600401808060200182810382526024815260200180610a946024913960400191505060405180910390fd5b6000808573ffffffffffffffffffffffffffffffffffffffff16856040518082805190602001908083835b602083106105e757805182527fffffffffffffffffffffffffffffffffffffffffffffffffffffffffffffffe090920191602091820191016105aa565b6001836020036101000a038019825116818451168082178552505050505050905001915050600060405180830381855afa9150503d80600081146104e9576040519150601f19603f3d011682016040523d82523d6000602084013e6104ee565b6020015190565b3b151590565b606083156106635750816102a4565b8251156106735782518084602001fd5b816040517f08c379a00000000000000000000000000000000000000000000000000000000081526004018080602001828103825283818151815260200191508051906020019080838360005b838110156106d75781810151838201526020016106bf565b50505050905090810190601f1680156107045780820380516001836020036101000a031916815260200191505b509250505060405180910390fd5b60608247101561076d576040517f08c379a0000000000000000000000000000000000000000000000000000000008152600401808060200182810382526026815260200180610a486026913960400191505060405180910390fd5b6107768561064e565b6107e157604080517f08c379a000000000000000000000000000000000000000000000000000000000815260206004820152601d60248201527f416464726573733a2063616c6c20746f206e6f6e2d636f6e7472616374000000604482015290519081900360640190fd5b6000808673ffffffffffffffffffffffffffffffffffffffff1685876040518082805190602001908083835b6020831061084a57805182527fffffffffffffffffffffffffffffffffffffffffffffffffffffffffffffffe0909201916020918201910161080d565b6001836020036101000a03801982511681845116808217855250505050505090500191505060006040518083038185875af1925050503d80600081146108ac576040519150601f19603f3d011682016040523d82523d6000602084013e6108b1565b606091505b50915091506108c1828286610654565b979650505050505050565b803573ffffffffffffffffffffffffffffffffffffffff8116811461037d57600080fd5b600060208284031215610901578081fd5b6102a4826108cc565b6000806040838503121561091c578081fd5b610925836108cc565b9150610933602084016108cc565b90509250929050565b600080600060608486031215610950578081fd5b610959846108cc565b9250610967602085016108cc565b9150604084013590509250925092565b60008060408385031215610989578182fd5b610992836108cc565b946020939093013593505050565b73ffffffffffffffffffffffffffffffffffffffff94851681529290931660208301526040820152606081019190915260a06080820181905260009082015260c00190565b73ffffffffffffffffffffffffffffffffffffffff9290921682521515602082015260400190565b73ffffffffffffffffffffffffffffffffffffffff929092168252602082015260400190565b901515815260200190565b9081526020019056fe416464726573733a20696e73756666696369656e742062616c616e636520666f722063616c6c416464726573733a2064656c65676174652063616c6c20746f206e6f6e2d636f6e7472616374416464726573733a207374617469632063616c6c20746f206e6f6e2d636f6e747261637444656c656761746545524332303a2066756e6374696f6e2063616c6c206661696c6564a164736f6c6343000706000a455243313135353a207472616e7366657220746f206e6f6e2045524331313535526563656976657220696d706c656d656e746572455243313135353a204552433131353552656365697665722072656a656374656420746f6b656e73455243313135353a206d696e7420746f20746865207a65726f2061646472657373",
  "linkReferences": {},
  "deployedLinkReferences": {}
}