{
  "_format": "hh-sol-artifact-1",
  "contractName": "SolidatiryItems",
  "sourceName": "contracts/SolidatiryItem.sol",
  "abi": [
    {
      "inputs": [],
      "stateMutability": "nonpayable",
      "type": "constructor"
    },
    {
      "anonymous": false,
      "inputs": [
        {
          "indexed": true,
          "internalType": "address",
          "name": "account",
          "type": "address"
        },
        {
          "indexed": true,
          "internalType": "address",
          "name": "operator",
          "type": "address"
        },
        {
          "indexed": false,
          "internalType": "bool",
          "name": "approved",
          "type": "bool"
        }
      ],
      "name": "ApprovalForAll",
      "type": "event"
    },
    {
      "anonymous": false,
      "inputs": [
        {
          "indexed": true,
          "internalType": "address",
          "name": "operator",
          "type": "address"
        },
        {
          "indexed": true,
          "internalType": "address",
          "name": "from",
          "type": "address"
        },
        {
          "indexed": true,
          "internalType": "address",
          "name": "to",
          "type": "address"
        },
        {
          "indexed": false,
          "internalType": "uint256[]",
          "name": "ids",
          "type": "uint256[]"
        },
        {
          "indexed": false,
          "internalType": "uint256[]",
          "name": "values",
          "type": "uint256[]"
        }
      ],
      "name": "TransferBatch",
      "type": "event"
    },
    {
      "anonymous": false,
      "inputs": [
        {
          "indexed": true,
          "internalType": "address",
          "name": "operator",
          "type": "address"
        },
        {
          "indexed": true,
          "internalType": "address",
          "name": "from",
          "type": "address"
        },
        {
          "indexed": true,
          "internalType": "address",
          "name": "to",
          "type": "address"
        },
        {
          "indexed": false,
          "internalType": "uint256",
          "name": "id",
          "type": "uint256"
        },
        {
          "indexed": false,
          "internalType": "uint256",
          "name": "value",
          "type": "uint256"
        }
      ],
      "name": "TransferSingle",
      "type": "event"
    },
    {
      "anonymous": false,
      "inputs": [
        {
          "indexed": false,
          "internalType": "string",
          "name": "value",
          "type": "string"
        },
        {
          "indexed": true,
          "internalType": "uint256",
          "name": "id",
          "type": "uint256"
        }
      ],
      "name": "URI",
      "type": "event"
    },
    {
      "inputs": [],
      "name": "SARDINE",
      "outputs": [
        {
          "internalType": "uint256",
          "name": "",
          "type": "uint256"
        }
      ],
      "stateMutability": "view",
      "type": "function"
    },
    {
      "inputs": [
        {
          "internalType": "address",
          "name": "account",
          "type": "address"
        },
        {
          "internalType": "uint256",
          "name": "id",
          "type": "uint256"
        }
      ],
      "name": "balanceOf",
      "outputs": [
        {
          "internalType": "uint256",
          "name": "",
          "type": "uint256"
        }
      ],
      "stateMutability": "view",
      "type": "function"
    },
    {
      "inputs": [
        {
          "internalType": "address[]",
          "name": "accounts",
          "type": "address[]"
        },
        {
          "internalType": "uint256[]",
          "name": "ids",
          "type": "uint256[]"
        }
      ],
      "name": "balanceOfBatch",
      "outputs": [
        {
          "internalType": "uint256[]",
          "name": "",
          "type": "uint256[]"
        }
      ],
      "stateMutability": "view",
      "type": "function"
    },
    {
      "inputs": [],
      "name": "clone",
      "outputs": [
        {
          "internalType": "contract DelegateERC20",
          "name": "",
          "type": "address"
        }
      ],
      "stateMutability": "view",
      "type": "function"
    },
    {
      "inputs": [],
      "name": "init",
      "outputs": [],
      "stateMutability": "nonpayable",
      "type": "function"
    },
    {
      "inputs": [
        {
          "internalType": "address",
          "name": "account",
          "type": "address"
        },
        {
          "internalType": "address",
          "name": "operator",
          "type": "address"
        }
      ],
      "name": "isApprovedForAll",
      "outputs": [
        {
          "internalType": "bool",
          "name": "",
          "type": "bool"
        }
      ],
      "stateMutability": "view",
      "type": "function"
    },
    {
      "inputs": [
        {
          "internalType": "address",
          "name": "from",
          "type": "address"
        },
        {
          "internalType": "address",
          "name": "to",
          "type": "address"
        },
        {
          "internalType": "uint256[]",
          "name": "ids",
          "type": "uint256[]"
        },
        {
          "internalType": "uint256[]",
          "name": "amounts",
          "type": "uint256[]"
        },
        {
          "internalType": "bytes",
          "name": "data",
          "type": "bytes"
        }
      ],
      "name": "safeBatchTransferFrom",
      "outputs": [],
      "stateMutability": "nonpayable",
      "type": "function"
    },
    {
      "inputs": [
        {
          "internalType": "address",
          "name": "from",
          "type": "address"
        },
        {
          "internalType": "address",
          "name": "to",
          "type": "address"
        },
        {
          "internalType": "uint256",
          "name": "id",
          "type": "uint256"
        },
        {
          "internalType": "uint256",
          "name": "amount",
          "type": "uint256"
        },
        {
          "internalType": "bytes",
          "name": "data",
          "type": "bytes"
        }
      ],
      "name": "safeTransferFrom",
      "outputs": [],
      "stateMutability": "nonpayable",
      "type": "function"
    },
    {
      "inputs": [
        {
          "internalType": "address",
          "name": "operator",
          "type": "address"
        },
        {
          "internalType": "bool",
          "name": "approved",
          "type": "bool"
        }
      ],
      "name": "setApprovalForAll",
      "outputs": [],
      "stateMutability": "nonpayable",
      "type": "function"
    },
    {
      "inputs": [
        {
          "internalType": "bytes4",
          "name": "interfaceId",
          "type": "bytes4"
        }
      ],
      "name": "supportsInterface",
      "outputs": [
        {
          "internalType": "bool",
          "name": "",
          "type": "bool"
        }
      ],
      "stateMutability": "view",
      "type": "function"
    },
    {
      "inputs": [
        {
          "internalType": "uint256",
          "name": "",
          "type": "uint256"
        }
      ],
      "name": "uri",
      "outputs": [
        {
          "internalType": "string",
          "name": "",
          "type": "string"
        }
      ],
      "stateMutability": "view",
      "type": "function"
    }
  ],
  "bytecode": "0x60806040523480156200001157600080fd5b5060408051808201909152600b81526a697066733a2f2f7b69647d60a81b6020820152620000466301ffc9a760e01b62000116565b62000051816200019b565b62000063636cdb3d1360e11b62000116565b620000756303a24d0760e21b62000116565b50620000ac3360007172cb5bd86321e38cb6ce6682e8000000000060405180602001604052806000815250620001b460201b60201c565b306000604051620000bd90620005fe565b6001600160a01b0390921682526020820152604080519182900301906000f080158015620000ef573d6000803e3d6000fd5b50600480546001600160a01b0319166001600160a01b03929092169190911790556200076e565b6001600160e01b0319808216141562000176576040805162461bcd60e51b815260206004820152601c60248201527f4552433136353a20696e76616c696420696e7465726661636520696400000000604482015290519081900360640190fd5b6001600160e01b0319166000908152602081905260409020805460ff19166001179055565b8051620001b09060039060208401906200060c565b5050565b6001600160a01b038416620001fb5760405162461bcd60e51b815260040180806020018281038252602181526020018062002f306021913960400191505060405180910390fd5b600062000207620002e3565b90506200022e816000876200021c88620002e8565b6200022788620002e8565b876200032e565b60008481526001602090815260408083206001600160a01b038916845282529091205462000267918590620011d962000336821b17901c565b60008581526001602090815260408083206001600160a01b03808b16808652918452828520959095558151898152928301889052815190948616927fc3d58168c5ae7397731d063d5bbf3d657854427343f4c083240f7aacaa2d0f6292908290030190a4620002dc8160008787878762000398565b5050505050565b335b90565b604080516001808252818301909252606091600091906020808301908036833701905050905082816000815181106200031d57fe5b602090810291909101015292915050565b505050505050565b60008282018381101562000391576040805162461bcd60e51b815260206004820152601b60248201527f536166654d6174683a206164646974696f6e206f766572666c6f770000000000604482015290519081900360640190fd5b9392505050565b620003b7846001600160a01b0316620005f860201b620012541760201c565b156200032e57836001600160a01b031663f23a6e6187878686866040518663ffffffff1660e01b815260040180866001600160a01b03168152602001856001600160a01b0316815260200184815260200183815260200180602001828103825283818151815260200191508051906020019080838360005b83811015620004495781810151838201526020016200042f565b50505050905090810190601f168015620004775780820380516001836020036101000a031916815260200191505b509650505050505050602060405180830381600087803b1580156200049b57600080fd5b505af1925050508015620004c257506040513d6020811015620004bd57600080fd5b505160015b6200059e57620004d1620006be565b80620004de575062000566565b8060405162461bcd60e51b81526004018080602001828103825283818151815260200191508051906020019080838360005b838110156200052a57818101518382015260200162000510565b50505050905090810190601f168015620005585780820380516001836020036101000a031916815260200191505b509250505060405180910390fd5b60405162461bcd60e51b815260040180806020018281038252603481526020018062002ed46034913960400191505060405180910390fd5b6001600160e01b0319811663f23a6e6160e01b14620005ef5760405162461bcd60e51b815260040180806020018281038252602881526020018062002f086028913960400191505060405180910390fd5b50505050505050565b3b151590565b610b0b80620023c983390190565b828054600181600116156101000203166002900490600052602060002090601f0160209004810192826200064457600085556200068f565b82601f106200065f57805160ff19168380011785556200068f565b828001600101855582156200068f579182015b828111156200068f57825182559160200191906001019062000672565b506200069d929150620006a1565b5090565b5b808211156200069d5760008155600101620006a2565b60e01c90565b600060443d1015620006d057620002e5565b600481823e6308c379a0620006e68251620006b8565b14620006f257620002e5565b6040513d600319016004823e80513d6001600160401b038083116024840183101715620007235750505050620002e5565b828401925082519150808211156200073f5750505050620002e5565b503d830160208284010111156200075957505050620002e5565b601f01601f1916810160200160405291505090565b611c4b806200077e6000396000f3fe608060405234801561001057600080fd5b50600436106100c85760003560e01c80634e1273f411610081578063e1c7392a1161005b578063e1c7392a146105be578063e985e9c5146105c6578063f242432a14610601576100c8565b80634e1273f4146104045780639bbde0e51461057b578063a22cb46514610583576100c8565b806309ed4607116100b257806309ed46071461016b5780630e89341c1461019c5780632eb2c2d61461022e576100c8565b8062fdd58e146100cd57806301ffc9a714610118575b600080fd5b610106600480360360408110156100e357600080fd5b5073ffffffffffffffffffffffffffffffffffffffff81351690602001356106d9565b60408051918252519081900360200190f35b6101576004803603602081101561012e57600080fd5b50357fffffffff000000000000000000000000000000000000000000000000000000001661077c565b604080519115158252519081900360200190f35b6101736107b3565b6040805173ffffffffffffffffffffffffffffffffffffffff9092168252519081900360200190f35b6101b9600480360360208110156101b257600080fd5b50356107cf565b6040805160208082528351818301528351919283929083019185019080838360005b838110156101f35781810151838201526020016101db565b50505050905090810190601f1680156102205780820380516001836020036101000a031916815260200191505b509250505060405180910390f35b610402600480360360a081101561024457600080fd5b73ffffffffffffffffffffffffffffffffffffffff823581169260208101359091169181019060608101604082013564010000000081111561028557600080fd5b82018360208201111561029757600080fd5b803590602001918460208302840111640100000000831117156102b957600080fd5b919080806020026020016040519081016040528093929190818152602001838360200280828437600092019190915250929594936020810193503591505064010000000081111561030957600080fd5b82018360208201111561031b57600080fd5b8035906020019184602083028401116401000000008311171561033d57600080fd5b919080806020026020016040519081016040528093929190818152602001838360200280828437600092019190915250929594936020810193503591505064010000000081111561038d57600080fd5b82018360208201111561039f57600080fd5b803590602001918460018302840111640100000000831117156103c157600080fd5b91908080601f016020809104026020016040519081016040528093929190818152602001838380828437600092019190915250929550610885945050505050565b005b61052b6004803603604081101561041a57600080fd5b81019060208101813564010000000081111561043557600080fd5b82018360208201111561044757600080fd5b8035906020019184602083028401116401000000008311171561046957600080fd5b91908080602002602001604051908101604052809392919081815260200183836020028082843760009201919091525092959493602081019350359150506401000000008111156104b957600080fd5b8201836020820111156104cb57600080fd5b803590602001918460208302840111640100000000831117156104ed57600080fd5b919080806020026020016040519081016040528093929190818152602001838360200280828437600092019190915250929550610c53945050505050565b60408051602080825283518183015283519192839290830191858101910280838360005b8381101561056757818101518382015260200161054f565b505050509050019250505060405180910390f35b610106610d59565b6104026004803603604081101561059957600080fd5b5073ffffffffffffffffffffffffffffffffffffffff81351690602001351515610d5e565b610402610eb9565b610157600480360360408110156105dc57600080fd5b5073ffffffffffffffffffffffffffffffffffffffff81358116916020013516610f51565b610402600480360360a081101561061757600080fd5b73ffffffffffffffffffffffffffffffffffffffff823581169260208101359091169160408201359160608101359181019060a08101608082013564010000000081111561066457600080fd5b82018360208201111561067657600080fd5b8035906020019184600183028401116401000000008311171561069857600080fd5b91908080601f016020809104026020016040519081016040528093929190818152602001838380828437600092019190915250929550610f8c945050505050565b600073ffffffffffffffffffffffffffffffffffffffff8316610747576040517f08c379a000000000000000000000000000000000000000000000000000000000815260040180806020018281038252602b815260200180611af0602b913960400191505060405180910390fd5b50600090815260016020908152604080832073ffffffffffffffffffffffffffffffffffffffff949094168352929052205490565b7fffffffff000000000000000000000000000000000000000000000000000000001660009081526020819052604090205460ff1690565b60045473ffffffffffffffffffffffffffffffffffffffff1681565b60038054604080516020601f60027fffffffffffffffffffffffffffffffffffffffffffffffffffffffffffffffff6101006001881615020190951694909404938401819004810282018101909252828152606093909290918301828280156108795780601f1061084e57610100808354040283529160200191610879565b820191906000526020600020905b81548152906001019060200180831161085c57829003601f168201915b50505050509050919050565b81518351146108df576040517f08c379a0000000000000000000000000000000000000000000000000000000008152600401808060200182810382526028815260200180611c176028913960400191505060405180910390fd5b73ffffffffffffffffffffffffffffffffffffffff841661094b576040517f08c379a0000000000000000000000000000000000000000000000000000000008152600401808060200182810382526025815260200180611b446025913960400191505060405180910390fd5b61095361125a565b73ffffffffffffffffffffffffffffffffffffffff168573ffffffffffffffffffffffffffffffffffffffff16148061099857506109988561099361125a565b610f51565b6109ed576040517f08c379a0000000000000000000000000000000000000000000000000000000008152600401808060200182810382526032815260200180611b696032913960400191505060405180910390fd5b60006109f761125a565b9050610a07818787878787610c4b565b60005b8451811015610b3c576000858281518110610a2157fe5b602002602001015190506000858381518110610a3957fe5b60200260200101519050610ac0816040518060600160405280602a8152602001611b9b602a91396001600086815260200190815260200160002060008d73ffffffffffffffffffffffffffffffffffffffff1673ffffffffffffffffffffffffffffffffffffffff1681526020019081526020016000205461125f9092919063ffffffff16565b600083815260016020908152604080832073ffffffffffffffffffffffffffffffffffffffff8e811685529252808320939093558a1681522054610b0490826111d9565b600092835260016020818152604080862073ffffffffffffffffffffffffffffffffffffffff8d168752909152909320555001610a0a565b508473ffffffffffffffffffffffffffffffffffffffff168673ffffffffffffffffffffffffffffffffffffffff168273ffffffffffffffffffffffffffffffffffffffff167f4a39dc06d4c0dbc64b70af90fd698a233a518aa5d07e595d983b8c0526c8f7fb8787604051808060200180602001838103835285818151815260200191508051906020019060200280838360005b83811015610be9578181015183820152602001610bd1565b50505050905001838103825284818151815260200191508051906020019060200280838360005b83811015610c28578181015183820152602001610c10565b5050505090500194505050505060405180910390a4610c4b818787878787611310565b505050505050565b60608151835114610caf576040517f08c379a0000000000000000000000000000000000000000000000000000000008152600401808060200182810382526029815260200180611bee6029913960400191505060405180910390fd5b6000835167ffffffffffffffff81118015610cc957600080fd5b50604051908082528060200260200182016040528015610cf3578160200160208202803683370190505b50905060005b8451811015610d5157610d32858281518110610d1157fe5b6020026020010151858381518110610d2557fe5b60200260200101516106d9565b828281518110610d3e57fe5b6020908102919091010152600101610cf9565b509392505050565b600081565b8173ffffffffffffffffffffffffffffffffffffffff16610d7d61125a565b73ffffffffffffffffffffffffffffffffffffffff161415610dea576040517f08c379a0000000000000000000000000000000000000000000000000000000008152600401808060200182810382526029815260200180611bc56029913960400191505060405180910390fd5b8060026000610df761125a565b73ffffffffffffffffffffffffffffffffffffffff90811682526020808301939093526040918201600090812091871680825291909352912080547fffffffffffffffffffffffffffffffffffffffffffffffffffffffffffffff001692151592909217909155610e6661125a565b73ffffffffffffffffffffffffffffffffffffffff167f17307eab39ab6107e8899845ad3d59bd9653f200f220920489ca2b5937696c318360405180821515815260200191505060405180910390a35050565b610ef86040518060400160405280600381526020017f4d6520000000000000000000000000000000000000000000000000000000000081525030611642565b60408051808201909152600681527f436c6f6e652000000000000000000000000000000000000000000000000000006020820152600454610f4f919073ffffffffffffffffffffffffffffffffffffffff16611642565b565b73ffffffffffffffffffffffffffffffffffffffff918216600090815260026020908152604080832093909416825291909152205460ff1690565b73ffffffffffffffffffffffffffffffffffffffff8416610ff8576040517f08c379a0000000000000000000000000000000000000000000000000000000008152600401808060200182810382526025815260200180611b446025913960400191505060405180910390fd5b61100061125a565b73ffffffffffffffffffffffffffffffffffffffff168573ffffffffffffffffffffffffffffffffffffffff16148061104057506110408561099361125a565b611095576040517f08c379a0000000000000000000000000000000000000000000000000000000008152600401808060200182810382526029815260200180611b1b6029913960400191505060405180910390fd5b600061109f61125a565b90506110bf8187876110b088611756565b6110b988611756565b87610c4b565b611113836040518060600160405280602a8152602001611b9b602a9139600087815260016020908152604080832073ffffffffffffffffffffffffffffffffffffffff8d168452909152902054919061125f565b600085815260016020908152604080832073ffffffffffffffffffffffffffffffffffffffff8b8116855292528083209390935587168152205461115790846111d9565b600085815260016020908152604080832073ffffffffffffffffffffffffffffffffffffffff808b168086529184529382902094909455805188815291820187905280518a8416938616927fc3d58168c5ae7397731d063d5bbf3d657854427343f4c083240f7aacaa2d0f6292908290030190a4610c4b81878787878761179b565b60008282018381101561124d57604080517f08c379a000000000000000000000000000000000000000000000000000000000815260206004820152601b60248201527f536166654d6174683a206164646974696f6e206f766572666c6f770000000000604482015290519081900360640190fd5b9392505050565b3b151590565b335b90565b60008184841115611308576040517f08c379a00000000000000000000000000000000000000000000000000000000081526004018080602001828103825283818151815260200191508051906020019080838360005b838110156112cd5781810151838201526020016112b5565b50505050905090810190601f1680156112fa5780820380516001836020036101000a031916815260200191505b509250505060405180910390fd5b505050900390565b61132f8473ffffffffffffffffffffffffffffffffffffffff16611254565b15610c4b578373ffffffffffffffffffffffffffffffffffffffff1663bc197c8187878686866040518663ffffffff1660e01b8152600401808673ffffffffffffffffffffffffffffffffffffffff1681526020018573ffffffffffffffffffffffffffffffffffffffff168152602001806020018060200180602001848103845287818151815260200191508051906020019060200280838360005b838110156113e45781810151838201526020016113cc565b50505050905001848103835286818151815260200191508051906020019060200280838360005b8381101561142357818101518382015260200161140b565b50505050905001848103825285818151815260200191508051906020019080838360005b8381101561145f578181015183820152602001611447565b50505050905090810190601f16801561148c5780820380516001836020036101000a031916815260200191505b5098505050505050505050602060405180830381600087803b1580156114b157600080fd5b505af19250505080156114d657506040513d60208110156114d157600080fd5b505160015b61159f576114e26119b2565b806114ed575061154e565b6040517f08c379a00000000000000000000000000000000000000000000000000000000081526020600482018181528351602484015283518493919283926044019190850190808383600083156112cd5781810151838201526020016112b5565b6040517f08c379a0000000000000000000000000000000000000000000000000000000008152600401808060200182810382526034815260200180611a946034913960400191505060405180910390fd5b7fffffffff0000000000000000000000000000000000000000000000000000000081167fbc197c810000000000000000000000000000000000000000000000000000000014611639576040517f08c379a0000000000000000000000000000000000000000000000000000000008152600401808060200182810382526028815260200180611ac86028913960400191505060405180910390fd5b50505050505050565b611752828260405160240180806020018373ffffffffffffffffffffffffffffffffffffffff168152602001828103825284818151815260200191508051906020019080838360005b838110156116a357818101518382015260200161168b565b50505050905090810190601f1680156116d05780820380516001836020036101000a031916815260200191505b50604080517fffffffffffffffffffffffffffffffffffffffffffffffffffffffffffffffe08184030181529190526020810180517bffffffffffffffffffffffffffffffffffffffffffffffffffffffff167f319af33300000000000000000000000000000000000000000000000000000000179052935061198b92505050565b5050565b6040805160018082528183019092526060916000919060208083019080368337019050509050828160008151811061178a57fe5b602090810291909101015292915050565b6117ba8473ffffffffffffffffffffffffffffffffffffffff16611254565b15610c4b578373ffffffffffffffffffffffffffffffffffffffff1663f23a6e6187878686866040518663ffffffff1660e01b8152600401808673ffffffffffffffffffffffffffffffffffffffff1681526020018573ffffffffffffffffffffffffffffffffffffffff16815260200184815260200183815260200180602001828103825283818151815260200191508051906020019080838360005b83811015611870578181015183820152602001611858565b50505050905090810190601f16801561189d5780820380516001836020036101000a031916815260200191505b509650505050505050602060405180830381600087803b1580156118c057600080fd5b505af19250505080156118e557506040513d60208110156118e057600080fd5b505160015b6118f1576114e26119b2565b7fffffffff0000000000000000000000000000000000000000000000000000000081167ff23a6e610000000000000000000000000000000000000000000000000000000014611639576040517f08c379a0000000000000000000000000000000000000000000000000000000008152600401808060200182810382526028815260200180611ac86028913960400191505060405180910390fd5b80516a636f6e736f6c652e6c6f67602083016000808483855afa5050505050565b60e01c90565b600060443d10156119c25761125c565b600481823e6308c379a06119d682516119ac565b146119e05761125c565b6040517ffffffffffffffffffffffffffffffffffffffffffffffffffffffffffffffffc3d016004823e80513d67ffffffffffffffff8160248401118184111715611a2e575050505061125c565b82840192508251915080821115611a48575050505061125c565b503d83016020828401011115611a605750505061125c565b601f017fffffffffffffffffffffffffffffffffffffffffffffffffffffffffffffffe01681016020016040529150509056fe455243313135353a207472616e7366657220746f206e6f6e2045524331313535526563656976657220696d706c656d656e746572455243313135353a204552433131353552656365697665722072656a656374656420746f6b656e73455243313135353a2062616c616e636520717565727920666f7220746865207a65726f2061646472657373455243313135353a2063616c6c6572206973206e6f74206f776e6572206e6f7220617070726f766564455243313135353a207472616e7366657220746f20746865207a65726f2061646472657373455243313135353a207472616e736665722063616c6c6572206973206e6f74206f776e6572206e6f7220617070726f766564455243313135353a20696e73756666696369656e742062616c616e636520666f72207472616e73666572455243313135353a2073657474696e6720617070726f76616c2073746174757320666f722073656c66455243313135353a206163636f756e747320616e6420696473206c656e677468206d69736d61746368455243313135353a2069647320616e6420616d6f756e7473206c656e677468206d69736d61746368a164736f6c6343000706000a608060405234801561001057600080fd5b50604051610b0b380380610b0b8339818101604052604081101561003357600080fd5b508051602090910151600080546001600160a01b0319166001600160a01b03909316929092178255600155610a9d90819061006e90396000f3fe608060405234801561001057600080fd5b50600436106100725760003560e01c806370a082311161005057806370a0823114610121578063a9059cbb14610154578063dd62ed3e1461018d57610072565b8063095ea7b31461007757806318160ddd146100c457806323b872dd146100de575b600080fd5b6100b06004803603604081101561008d57600080fd5b5073ffffffffffffffffffffffffffffffffffffffff81351690602001356101c8565b604080519115158252519081900360200190f35b6100cc610281565b60408051918252519081900360200190f35b6100b0600480360360608110156100f457600080fd5b5073ffffffffffffffffffffffffffffffffffffffff813581169160208101359091169060400135610286565b6100cc6004803603602081101561013757600080fd5b503573ffffffffffffffffffffffffffffffffffffffff16610362565b6100b06004803603604081101561016a57600080fd5b5073ffffffffffffffffffffffffffffffffffffffff813516906020013561041d565b6100cc600480360360408110156101a357600080fd5b5073ffffffffffffffffffffffffffffffffffffffff813581169160200135166104ea565b600080546040805173ffffffffffffffffffffffffffffffffffffffff868116602483015260016044808401919091528351808403909101815260649092018352602082810180517bffffffffffffffffffffffffffffffffffffffffffffffffffffffff167fa22cb4650000000000000000000000000000000000000000000000000000000017905283516060810190945260238085526102779592909216939190610a6e908301396104f2565b5060019392505050565b600090565b600080546001546040805173ffffffffffffffffffffffffffffffffffffffff8881166024830152878116604483015260648201939093526084810186905260a060a482015260c48082018690528251808303909101815260e49091018252602081810180517bffffffffffffffffffffffffffffffffffffffffffffffffffffffff167ff242432a00000000000000000000000000000000000000000000000000000000179052825160608101909352602380845261035595949094169391929190610a6e908301396104f2565b50600190505b9392505050565b600080546001546040805173ffffffffffffffffffffffffffffffffffffffff86811660248301526044808301949094528251808303909401845260649091018252602083810180517bffffffffffffffffffffffffffffffffffffffffffffffffffffffff167efdd58e000000000000000000000000000000000000000000000000000000001790528251606081019093526023808452610417956104129593169391610a6e90830139610639565b610761565b92915050565b600080546001546040805133602482015273ffffffffffffffffffffffffffffffffffffffff878116604483015260648201939093526084810186905260a060a482015260c48082018690528251808303909101815260e49091018252602081810180517bffffffffffffffffffffffffffffffffffffffffffffffffffffffff167ff242432a00000000000000000000000000000000000000000000000000000000179052825160608101909352602380845261027795949094169391929190610a6e90830139610768565b600092915050565b60606104fd8461077f565b610552576040517f08c379a0000000000000000000000000000000000000000000000000000000008152600401808060200182810382526026815260200180610a246026913960400191505060405180910390fd5b6000808573ffffffffffffffffffffffffffffffffffffffff16856040518082805190602001908083835b602083106105ba57805182527fffffffffffffffffffffffffffffffffffffffffffffffffffffffffffffffe0909201916020918201910161057d565b6001836020036101000a038019825116818451168082178552505050505050905001915050600060405180830381855af49150503d806000811461061a576040519150601f19603f3d011682016040523d82523d6000602084013e61061f565b606091505b509150915061062f828286610785565b9695505050505050565b60606106448461077f565b610699576040517f08c379a0000000000000000000000000000000000000000000000000000000008152600401808060200182810382526024815260200180610a4a6024913960400191505060405180910390fd5b6000808573ffffffffffffffffffffffffffffffffffffffff16856040518082805190602001908083835b6020831061070157805182527fffffffffffffffffffffffffffffffffffffffffffffffffffffffffffffffe090920191602091820191016106c4565b6001836020036101000a038019825116818451168082178552505050505050905001915050600060405180830381855afa9150503d806000811461061a576040519150601f19603f3d011682016040523d82523d6000602084013e61061f565b6020015190565b60606107778484600085610843565b949350505050565b3b151590565b6060831561079457508161035b565b8251156107a45782518084602001fd5b816040517f08c379a00000000000000000000000000000000000000000000000000000000081526004018080602001828103825283818151815260200191508051906020019080838360005b838110156108085781810151838201526020016107f0565b50505050905090810190601f1680156108355780820380516001836020036101000a031916815260200191505b509250505060405180910390fd5b60608247101561089e576040517f08c379a00000000000000000000000000000000000000000000000000000000081526004018080602001828103825260268152602001806109fe6026913960400191505060405180910390fd5b6108a78561077f565b61091257604080517f08c379a000000000000000000000000000000000000000000000000000000000815260206004820152601d60248201527f416464726573733a2063616c6c20746f206e6f6e2d636f6e7472616374000000604482015290519081900360640190fd5b6000808673ffffffffffffffffffffffffffffffffffffffff1685876040518082805190602001908083835b6020831061097b57805182527fffffffffffffffffffffffffffffffffffffffffffffffffffffffffffffffe0909201916020918201910161093e565b6001836020036101000a03801982511681845116808217855250505050505090500191505060006040518083038185875af1925050503d80600081146109dd576040519150601f19603f3d011682016040523d82523d6000602084013e6109e2565b606091505b50915091506109f2828286610785565b97965050505050505056fe416464726573733a20696e73756666696369656e742062616c616e636520666f722063616c6c416464726573733a2064656c65676174652063616c6c20746f206e6f6e2d636f6e7472616374416464726573733a207374617469632063616c6c20746f206e6f6e2d636f6e747261637444656c656761746545524332303a2066756e6374696f6e2063616c6c206661696c6564a164736f6c6343000706000a455243313135353a207472616e7366657220746f206e6f6e2045524331313535526563656976657220696d706c656d656e746572455243313135353a204552433131353552656365697665722072656a656374656420746f6b656e73455243313135353a206d696e7420746f20746865207a65726f2061646472657373",
  "linkReferences": {},
  "deployedLinkReferences": {}
}