{
  "_format": "hh-sol-artifact-1",
  "contractName": "SolidatiryItems",
  "sourceName": "contracts/SolidatiryItem.sol",
  "abi": [
    {
      "inputs": [
        {
          "internalType": "string",
          "name": "nodeAddress",
          "type": "string"
        }
      ],
      "stateMutability": "nonpayable",
      "type": "constructor"
    },
    {
      "anonymous": false,
      "inputs": [
        {
          "indexed": true,
          "internalType": "address",
          "name": "account",
          "type": "address"
        },
        {
          "indexed": true,
          "internalType": "address",
          "name": "operator",
          "type": "address"
        },
        {
          "indexed": false,
          "internalType": "bool",
          "name": "approved",
          "type": "bool"
        }
      ],
      "name": "ApprovalForAll",
      "type": "event"
    },
    {
      "anonymous": false,
      "inputs": [
        {
          "indexed": true,
          "internalType": "address",
          "name": "operator",
          "type": "address"
        },
        {
          "indexed": true,
          "internalType": "address",
          "name": "from",
          "type": "address"
        },
        {
          "indexed": true,
          "internalType": "address",
          "name": "to",
          "type": "address"
        },
        {
          "indexed": false,
          "internalType": "uint256[]",
          "name": "ids",
          "type": "uint256[]"
        },
        {
          "indexed": false,
          "internalType": "uint256[]",
          "name": "values",
          "type": "uint256[]"
        }
      ],
      "name": "TransferBatch",
      "type": "event"
    },
    {
      "anonymous": false,
      "inputs": [
        {
          "indexed": true,
          "internalType": "address",
          "name": "operator",
          "type": "address"
        },
        {
          "indexed": true,
          "internalType": "address",
          "name": "from",
          "type": "address"
        },
        {
          "indexed": true,
          "internalType": "address",
          "name": "to",
          "type": "address"
        },
        {
          "indexed": false,
          "internalType": "uint256",
          "name": "id",
          "type": "uint256"
        },
        {
          "indexed": false,
          "internalType": "uint256",
          "name": "value",
          "type": "uint256"
        }
      ],
      "name": "TransferSingle",
      "type": "event"
    },
    {
      "anonymous": false,
      "inputs": [
        {
          "indexed": false,
          "internalType": "string",
          "name": "value",
          "type": "string"
        },
        {
          "indexed": true,
          "internalType": "uint256",
          "name": "id",
          "type": "uint256"
        }
      ],
      "name": "URI",
      "type": "event"
    },
    {
      "inputs": [],
      "name": "CLOTH",
      "outputs": [
        {
          "internalType": "uint256",
          "name": "",
          "type": "uint256"
        }
      ],
      "stateMutability": "view",
      "type": "function"
    },
    {
      "inputs": [],
      "name": "POO",
      "outputs": [
        {
          "internalType": "uint256",
          "name": "",
          "type": "uint256"
        }
      ],
      "stateMutability": "view",
      "type": "function"
    },
    {
      "inputs": [],
      "name": "SARDINE",
      "outputs": [
        {
          "internalType": "uint256",
          "name": "",
          "type": "uint256"
        }
      ],
      "stateMutability": "view",
      "type": "function"
    },
    {
      "inputs": [
        {
          "internalType": "address",
          "name": "account",
          "type": "address"
        },
        {
          "internalType": "uint256",
          "name": "id",
          "type": "uint256"
        }
      ],
      "name": "balanceOf",
      "outputs": [
        {
          "internalType": "uint256",
          "name": "",
          "type": "uint256"
        }
      ],
      "stateMutability": "view",
      "type": "function"
    },
    {
      "inputs": [
        {
          "internalType": "address[]",
          "name": "accounts",
          "type": "address[]"
        },
        {
          "internalType": "uint256[]",
          "name": "ids",
          "type": "uint256[]"
        }
      ],
      "name": "balanceOfBatch",
      "outputs": [
        {
          "internalType": "uint256[]",
          "name": "",
          "type": "uint256[]"
        }
      ],
      "stateMutability": "view",
      "type": "function"
    },
    {
      "inputs": [
        {
          "internalType": "address",
          "name": "account",
          "type": "address"
        },
        {
          "internalType": "address",
          "name": "operator",
          "type": "address"
        }
      ],
      "name": "isApprovedForAll",
      "outputs": [
        {
          "internalType": "bool",
          "name": "",
          "type": "bool"
        }
      ],
      "stateMutability": "view",
      "type": "function"
    },
    {
      "inputs": [
        {
          "internalType": "address",
          "name": "from",
          "type": "address"
        },
        {
          "internalType": "address",
          "name": "to",
          "type": "address"
        },
        {
          "internalType": "uint256[]",
          "name": "ids",
          "type": "uint256[]"
        },
        {
          "internalType": "uint256[]",
          "name": "amounts",
          "type": "uint256[]"
        },
        {
          "internalType": "bytes",
          "name": "data",
          "type": "bytes"
        }
      ],
      "name": "safeBatchTransferFrom",
      "outputs": [],
      "stateMutability": "nonpayable",
      "type": "function"
    },
    {
      "inputs": [
        {
          "internalType": "address",
          "name": "from",
          "type": "address"
        },
        {
          "internalType": "address",
          "name": "to",
          "type": "address"
        },
        {
          "internalType": "uint256",
          "name": "id",
          "type": "uint256"
        },
        {
          "internalType": "uint256",
          "name": "amount",
          "type": "uint256"
        },
        {
          "internalType": "bytes",
          "name": "data",
          "type": "bytes"
        }
      ],
      "name": "safeTransferFrom",
      "outputs": [],
      "stateMutability": "nonpayable",
      "type": "function"
    },
    {
      "inputs": [
        {
          "internalType": "address",
          "name": "operator",
          "type": "address"
        },
        {
          "internalType": "bool",
          "name": "approved",
          "type": "bool"
        }
      ],
      "name": "setApprovalForAll",
      "outputs": [],
      "stateMutability": "nonpayable",
      "type": "function"
    },
    {
      "inputs": [
        {
          "internalType": "bytes4",
          "name": "interfaceId",
          "type": "bytes4"
        }
      ],
      "name": "supportsInterface",
      "outputs": [
        {
          "internalType": "bool",
          "name": "",
          "type": "bool"
        }
      ],
      "stateMutability": "view",
      "type": "function"
    },
    {
      "inputs": [
        {
          "internalType": "uint256",
          "name": "",
          "type": "uint256"
        }
      ],
      "name": "uri",
      "outputs": [
        {
          "internalType": "string",
          "name": "",
          "type": "string"
        }
      ],
      "stateMutability": "view",
      "type": "function"
    }
  ],
  "bytecode": "0x60806040523480156200001157600080fd5b506040516200292f3803806200292f83398181016040528101906200003791906200018f565b8062000049816200005160201b60201c565b505062000305565b8060029080519060200190620000699291906200006d565b5050565b8280546200007b9062000271565b90600052602060002090601f0160209004810192826200009f5760008555620000eb565b82601f10620000ba57805160ff1916838001178555620000eb565b82800160010185558215620000eb579182015b82811115620000ea578251825591602001919060010190620000cd565b5b509050620000fa9190620000fe565b5090565b5b8082111562000119576000816000905550600101620000ff565b5090565b6000620001346200012e8462000208565b620001d4565b9050828152602081018484840111156200014d57600080fd5b6200015a8482856200023b565b509392505050565b600082601f8301126200017457600080fd5b8151620001868482602086016200011d565b91505092915050565b600060208284031215620001a257600080fd5b600082015167ffffffffffffffff811115620001bd57600080fd5b620001cb8482850162000162565b91505092915050565b6000604051905081810181811067ffffffffffffffff82111715620001fe57620001fd620002d6565b5b8060405250919050565b600067ffffffffffffffff821115620002265762000225620002d6565b5b601f19601f8301169050602081019050919050565b60005b838110156200025b5780820151818401526020810190506200023e565b838111156200026b576000848401525b50505050565b600060028204905060018216806200028a57607f821691505b60208210811415620002a157620002a0620002a7565b5b50919050565b7f4e487b7100000000000000000000000000000000000000000000000000000000600052602260045260246000fd5b7f4e487b7100000000000000000000000000000000000000000000000000000000600052604160045260246000fd5b61261a80620003156000396000f3fe608060405234801561001057600080fd5b50600436106100a85760003560e01c80634e1273f4116100715780634e1273f4146101775780639bbde0e5146101a7578063a22cb465146101c5578063a8c40a42146101e1578063e985e9c5146101ff578063f242432a1461022f576100a8565b8062fdd58e146100ad57806301ffc9a7146100dd5780630e89341c1461010d5780632eb2c2d61461013d57806332ed453414610159575b600080fd5b6100c760048036038101906100c29190611823565b61024b565b6040516100d491906120fe565b60405180910390f35b6100f760048036038101906100f291906118cb565b610314565b6040516101049190611f81565b60405180910390f35b6101276004803603810190610122919061191d565b6103f6565b6040516101349190611f9c565b60405180910390f35b61015760048036038101906101529190611699565b61048a565b005b610161610880565b60405161016e91906120fe565b60405180910390f35b610191600480360381019061018c919061185f565b610885565b60405161019e9190611f28565b60405180910390f35b6101af610a36565b6040516101bc91906120fe565b60405180910390f35b6101df60048036038101906101da91906117e7565b610a3b565b005b6101e9610bbc565b6040516101f691906120fe565b60405180910390f35b6102196004803603810190610214919061165d565b610bc1565b6040516102269190611f81565b60405180910390f35b61024960048036038101906102449190611758565b610c55565b005b60008073ffffffffffffffffffffffffffffffffffffffff168373ffffffffffffffffffffffffffffffffffffffff1614156102bc576040517f08c379a00000000000000000000000000000000000000000000000000000000081526004016102b390611ffe565b60405180910390fd5b60008083815260200190815260200160002060008473ffffffffffffffffffffffffffffffffffffffff1673ffffffffffffffffffffffffffffffffffffffff16815260200190815260200160002054905092915050565b60007fd9b67a26000000000000000000000000000000000000000000000000000000007bffffffffffffffffffffffffffffffffffffffffffffffffffffffff1916827bffffffffffffffffffffffffffffffffffffffffffffffffffffffff191614806103df57507f0e89341c000000000000000000000000000000000000000000000000000000007bffffffffffffffffffffffffffffffffffffffffffffffffffffffff1916827bffffffffffffffffffffffffffffffffffffffffffffffffffffffff1916145b806103ef57506103ee82610f6d565b5b9050919050565b606060028054610405906123ac565b80601f0160208091040260200160405190810160405280929190818152602001828054610431906123ac565b801561047e5780601f106104535761010080835404028352916020019161047e565b820191906000526020600020905b81548152906001019060200180831161046157829003601f168201915b50505050509050919050565b81518351146104ce576040517f08c379a00000000000000000000000000000000000000000000000000000000081526004016104c5906120de565b60405180910390fd5b600073ffffffffffffffffffffffffffffffffffffffff168473ffffffffffffffffffffffffffffffffffffffff16141561053e576040517f08c379a00000000000000000000000000000000000000000000000000000000081526004016105359061203e565b60405180910390fd5b610546610fd7565b73ffffffffffffffffffffffffffffffffffffffff168573ffffffffffffffffffffffffffffffffffffffff16148061058c575061058b85610586610fd7565b610bc1565b5b6105cb576040517f08c379a00000000000000000000000000000000000000000000000000000000081526004016105c29061205e565b60405180910390fd5b60006105d5610fd7565b90506105e5818787878787610fdf565b60005b84518110156107eb57600085828151811061062c577f4e487b7100000000000000000000000000000000000000000000000000000000600052603260045260246000fd5b602002602001015190506000858381518110610671577f4e487b7100000000000000000000000000000000000000000000000000000000600052603260045260246000fd5b60200260200101519050600080600084815260200190815260200160002060008b73ffffffffffffffffffffffffffffffffffffffff1673ffffffffffffffffffffffffffffffffffffffff16815260200190815260200160002054905081811015610712576040517f08c379a00000000000000000000000000000000000000000000000000000000081526004016107099061207e565b60405180910390fd5b818161071e91906122c2565b60008085815260200190815260200160002060008c73ffffffffffffffffffffffffffffffffffffffff1673ffffffffffffffffffffffffffffffffffffffff168152602001908152602001600020819055508160008085815260200190815260200160002060008b73ffffffffffffffffffffffffffffffffffffffff1673ffffffffffffffffffffffffffffffffffffffff16815260200190815260200160002060008282546107d0919061226c565b92505081905550505050806107e4906123de565b90506105e8565b508473ffffffffffffffffffffffffffffffffffffffff168673ffffffffffffffffffffffffffffffffffffffff168273ffffffffffffffffffffffffffffffffffffffff167f4a39dc06d4c0dbc64b70af90fd698a233a518aa5d07e595d983b8c0526c8f7fb8787604051610862929190611f4a565b60405180910390a4610878818787878787610fe7565b505050505050565b600181565b606081518351146108cb576040517f08c379a00000000000000000000000000000000000000000000000000000000081526004016108c2906120be565b60405180910390fd5b6000835167ffffffffffffffff81111561090e577f4e487b7100000000000000000000000000000000000000000000000000000000600052604160045260246000fd5b60405190808252806020026020018201604052801561093c5781602001602082028036833780820191505090505b50905060005b8451811015610a2b576109d5858281518110610987577f4e487b7100000000000000000000000000000000000000000000000000000000600052603260045260246000fd5b60200260200101518583815181106109c8577f4e487b7100000000000000000000000000000000000000000000000000000000600052603260045260246000fd5b602002602001015161024b565b828281518110610a0e577f4e487b7100000000000000000000000000000000000000000000000000000000600052603260045260246000fd5b60200260200101818152505080610a24906123de565b9050610942565b508091505092915050565b600081565b8173ffffffffffffffffffffffffffffffffffffffff16610a5a610fd7565b73ffffffffffffffffffffffffffffffffffffffff161415610ab1576040517f08c379a0000000000000000000000000000000000000000000000000000000008152600401610aa89061209e565b60405180910390fd5b8060016000610abe610fd7565b73ffffffffffffffffffffffffffffffffffffffff1673ffffffffffffffffffffffffffffffffffffffff16815260200190815260200160002060008473ffffffffffffffffffffffffffffffffffffffff1673ffffffffffffffffffffffffffffffffffffffff16815260200190815260200160002060006101000a81548160ff0219169083151502179055508173ffffffffffffffffffffffffffffffffffffffff16610b6b610fd7565b73ffffffffffffffffffffffffffffffffffffffff167f17307eab39ab6107e8899845ad3d59bd9653f200f220920489ca2b5937696c3183604051610bb09190611f81565b60405180910390a35050565b600281565b6000600160008473ffffffffffffffffffffffffffffffffffffffff1673ffffffffffffffffffffffffffffffffffffffff16815260200190815260200160002060008373ffffffffffffffffffffffffffffffffffffffff1673ffffffffffffffffffffffffffffffffffffffff16815260200190815260200160002060009054906101000a900460ff16905092915050565b600073ffffffffffffffffffffffffffffffffffffffff168473ffffffffffffffffffffffffffffffffffffffff161415610cc5576040517f08c379a0000000000000000000000000000000000000000000000000000000008152600401610cbc9061203e565b60405180910390fd5b610ccd610fd7565b73ffffffffffffffffffffffffffffffffffffffff168573ffffffffffffffffffffffffffffffffffffffff161480610d135750610d1285610d0d610fd7565b610bc1565b5b610d52576040517f08c379a0000000000000000000000000000000000000000000000000000000008152600401610d499061201e565b60405180910390fd5b6000610d5c610fd7565b9050610d7c818787610d6d886111b7565b610d76886111b7565b87610fdf565b600080600086815260200190815260200160002060008873ffffffffffffffffffffffffffffffffffffffff1673ffffffffffffffffffffffffffffffffffffffff16815260200190815260200160002054905083811015610e13576040517f08c379a0000000000000000000000000000000000000000000000000000000008152600401610e0a9061207e565b60405180910390fd5b8381610e1f91906122c2565b60008087815260200190815260200160002060008973ffffffffffffffffffffffffffffffffffffffff1673ffffffffffffffffffffffffffffffffffffffff168152602001908152602001600020819055508360008087815260200190815260200160002060008873ffffffffffffffffffffffffffffffffffffffff1673ffffffffffffffffffffffffffffffffffffffff1681526020019081526020016000206000828254610ed1919061226c565b925050819055508573ffffffffffffffffffffffffffffffffffffffff168773ffffffffffffffffffffffffffffffffffffffff168373ffffffffffffffffffffffffffffffffffffffff167fc3d58168c5ae7397731d063d5bbf3d657854427343f4c083240f7aacaa2d0f628888604051610f4e929190612119565b60405180910390a4610f6482888888888861127d565b50505050505050565b60007f01ffc9a7000000000000000000000000000000000000000000000000000000007bffffffffffffffffffffffffffffffffffffffffffffffffffffffff1916827bffffffffffffffffffffffffffffffffffffffffffffffffffffffff1916149050919050565b600033905090565b505050505050565b6110068473ffffffffffffffffffffffffffffffffffffffff1661144d565b156111af578373ffffffffffffffffffffffffffffffffffffffff1663bc197c8187878686866040518663ffffffff1660e01b815260040161104c959493929190611e66565b602060405180830381600087803b15801561106657600080fd5b505af192505050801561109757506040513d601f19601f8201168201806040525081019061109491906118f4565b60015b611126576110a36124d2565b806110ae57506110eb565b806040517f08c379a00000000000000000000000000000000000000000000000000000000081526004016110e29190611f9c565b60405180910390fd5b6040517f08c379a000000000000000000000000000000000000000000000000000000000815260040161111d90611fbe565b60405180910390fd5b63bc197c8160e01b7bffffffffffffffffffffffffffffffffffffffffffffffffffffffff1916817bffffffffffffffffffffffffffffffffffffffffffffffffffffffff1916146111ad576040517f08c379a00000000000000000000000000000000000000000000000000000000081526004016111a490611fde565b60405180910390fd5b505b505050505050565b60606000600167ffffffffffffffff8111156111fc577f4e487b7100000000000000000000000000000000000000000000000000000000600052604160045260246000fd5b60405190808252806020026020018201604052801561122a5781602001602082028036833780820191505090505b5090508281600081518110611268577f4e487b7100000000000000000000000000000000000000000000000000000000600052603260045260246000fd5b60200260200101818152505080915050919050565b61129c8473ffffffffffffffffffffffffffffffffffffffff1661144d565b15611445578373ffffffffffffffffffffffffffffffffffffffff1663f23a6e6187878686866040518663ffffffff1660e01b81526004016112e2959493929190611ece565b602060405180830381600087803b1580156112fc57600080fd5b505af192505050801561132d57506040513d601f19601f8201168201806040525081019061132a91906118f4565b60015b6113bc576113396124d2565b806113445750611381565b806040517f08c379a00000000000000000000000000000000000000000000000000000000081526004016113789190611f9c565b60405180910390fd5b6040517f08c379a00000000000000000000000000000000000000000000000000000000081526004016113b390611fbe565b60405180910390fd5b63f23a6e6160e01b7bffffffffffffffffffffffffffffffffffffffffffffffffffffffff1916817bffffffffffffffffffffffffffffffffffffffffffffffffffffffff191614611443576040517f08c379a000000000000000000000000000000000000000000000000000000000815260040161143a90611fde565b60405180910390fd5b505b505050505050565b600080823b905060008111915050919050565b600061147361146e84612173565b612142565b9050808382526020820190508285602086028201111561149257600080fd5b60005b858110156114c257816114a88882611576565b845260208401935060208301925050600181019050611495565b5050509392505050565b60006114df6114da8461219f565b612142565b905080838252602082019050828560208602820111156114fe57600080fd5b60005b8581101561152e57816115148882611648565b845260208401935060208301925050600181019050611501565b5050509392505050565b600061154b611546846121cb565b612142565b90508281526020810184848401111561156357600080fd5b61156e84828561236a565b509392505050565b60008135905061158581612588565b92915050565b600082601f83011261159c57600080fd5b81356115ac848260208601611460565b91505092915050565b600082601f8301126115c657600080fd5b81356115d68482602086016114cc565b91505092915050565b6000813590506115ee8161259f565b92915050565b600081359050611603816125b6565b92915050565b600081519050611618816125b6565b92915050565b600082601f83011261162f57600080fd5b813561163f848260208601611538565b91505092915050565b600081359050611657816125cd565b92915050565b6000806040838503121561167057600080fd5b600061167e85828601611576565b925050602061168f85828601611576565b9150509250929050565b600080600080600060a086880312156116b157600080fd5b60006116bf88828901611576565b95505060206116d088828901611576565b945050604086013567ffffffffffffffff8111156116ed57600080fd5b6116f9888289016115b5565b935050606086013567ffffffffffffffff81111561171657600080fd5b611722888289016115b5565b925050608086013567ffffffffffffffff81111561173f57600080fd5b61174b8882890161161e565b9150509295509295909350565b600080600080600060a0868803121561177057600080fd5b600061177e88828901611576565b955050602061178f88828901611576565b94505060406117a088828901611648565b93505060606117b188828901611648565b925050608086013567ffffffffffffffff8111156117ce57600080fd5b6117da8882890161161e565b9150509295509295909350565b600080604083850312156117fa57600080fd5b600061180885828601611576565b9250506020611819858286016115df565b9150509250929050565b6000806040838503121561183657600080fd5b600061184485828601611576565b925050602061185585828601611648565b9150509250929050565b6000806040838503121561187257600080fd5b600083013567ffffffffffffffff81111561188c57600080fd5b6118988582860161158b565b925050602083013567ffffffffffffffff8111156118b557600080fd5b6118c1858286016115b5565b9150509250929050565b6000602082840312156118dd57600080fd5b60006118eb848285016115f4565b91505092915050565b60006020828403121561190657600080fd5b600061191484828501611609565b91505092915050565b60006020828403121561192f57600080fd5b600061193d84828501611648565b91505092915050565b60006119528383611e48565b60208301905092915050565b611967816122f6565b82525050565b60006119788261220b565b6119828185612239565b935061198d836121fb565b8060005b838110156119be5781516119a58882611946565b97506119b08361222c565b925050600181019050611991565b5085935050505092915050565b6119d481612308565b82525050565b60006119e582612216565b6119ef818561224a565b93506119ff818560208601612379565b611a08816124b4565b840191505092915050565b6000611a1e82612221565b611a28818561225b565b9350611a38818560208601612379565b611a41816124b4565b840191505092915050565b6000611a5960348361225b565b91507f455243313135353a207472616e7366657220746f206e6f6e204552433131353560008301527f526563656976657220696d706c656d656e7465720000000000000000000000006020830152604082019050919050565b6000611abf60288361225b565b91507f455243313135353a204552433131353552656365697665722072656a6563746560008301527f6420746f6b656e730000000000000000000000000000000000000000000000006020830152604082019050919050565b6000611b25602b8361225b565b91507f455243313135353a2062616c616e636520717565727920666f7220746865207a60008301527f65726f20616464726573730000000000000000000000000000000000000000006020830152604082019050919050565b6000611b8b60298361225b565b91507f455243313135353a2063616c6c6572206973206e6f74206f776e6572206e6f7260008301527f20617070726f76656400000000000000000000000000000000000000000000006020830152604082019050919050565b6000611bf160258361225b565b91507f455243313135353a207472616e7366657220746f20746865207a65726f20616460008301527f64726573730000000000000000000000000000000000000000000000000000006020830152604082019050919050565b6000611c5760328361225b565b91507f455243313135353a207472616e736665722063616c6c6572206973206e6f742060008301527f6f776e6572206e6f7220617070726f76656400000000000000000000000000006020830152604082019050919050565b6000611cbd602a8361225b565b91507f455243313135353a20696e73756666696369656e742062616c616e636520666f60008301527f72207472616e73666572000000000000000000000000000000000000000000006020830152604082019050919050565b6000611d2360298361225b565b91507f455243313135353a2073657474696e6720617070726f76616c2073746174757360008301527f20666f722073656c6600000000000000000000000000000000000000000000006020830152604082019050919050565b6000611d8960298361225b565b91507f455243313135353a206163636f756e747320616e6420696473206c656e67746860008301527f206d69736d6174636800000000000000000000000000000000000000000000006020830152604082019050919050565b6000611def60288361225b565b91507f455243313135353a2069647320616e6420616d6f756e7473206c656e6774682060008301527f6d69736d617463680000000000000000000000000000000000000000000000006020830152604082019050919050565b611e5181612360565b82525050565b611e6081612360565b82525050565b600060a082019050611e7b600083018861195e565b611e88602083018761195e565b8181036040830152611e9a818661196d565b90508181036060830152611eae818561196d565b90508181036080830152611ec281846119da565b90509695505050505050565b600060a082019050611ee3600083018861195e565b611ef0602083018761195e565b611efd6040830186611e57565b611f0a6060830185611e57565b8181036080830152611f1c81846119da565b90509695505050505050565b60006020820190508181036000830152611f42818461196d565b905092915050565b60006040820190508181036000830152611f64818561196d565b90508181036020830152611f78818461196d565b90509392505050565b6000602082019050611f9660008301846119cb565b92915050565b60006020820190508181036000830152611fb68184611a13565b905092915050565b60006020820190508181036000830152611fd781611a4c565b9050919050565b60006020820190508181036000830152611ff781611ab2565b9050919050565b6000602082019050818103600083015261201781611b18565b9050919050565b6000602082019050818103600083015261203781611b7e565b9050919050565b6000602082019050818103600083015261205781611be4565b9050919050565b6000602082019050818103600083015261207781611c4a565b9050919050565b6000602082019050818103600083015261209781611cb0565b9050919050565b600060208201905081810360008301526120b781611d16565b9050919050565b600060208201905081810360008301526120d781611d7c565b9050919050565b600060208201905081810360008301526120f781611de2565b9050919050565b60006020820190506121136000830184611e57565b92915050565b600060408201905061212e6000830185611e57565b61213b6020830184611e57565b9392505050565b6000604051905081810181811067ffffffffffffffff8211171561216957612168612485565b5b8060405250919050565b600067ffffffffffffffff82111561218e5761218d612485565b5b602082029050602081019050919050565b600067ffffffffffffffff8211156121ba576121b9612485565b5b602082029050602081019050919050565b600067ffffffffffffffff8211156121e6576121e5612485565b5b601f19601f8301169050602081019050919050565b6000819050602082019050919050565b600081519050919050565b600081519050919050565b600081519050919050565b6000602082019050919050565b600082825260208201905092915050565b600082825260208201905092915050565b600082825260208201905092915050565b600061227782612360565b915061228283612360565b9250827fffffffffffffffffffffffffffffffffffffffffffffffffffffffffffffffff038211156122b7576122b6612427565b5b828201905092915050565b60006122cd82612360565b91506122d883612360565b9250828210156122eb576122ea612427565b5b828203905092915050565b600061230182612340565b9050919050565b60008115159050919050565b60007fffffffff0000000000000000000000000000000000000000000000000000000082169050919050565b600073ffffffffffffffffffffffffffffffffffffffff82169050919050565b6000819050919050565b82818337600083830152505050565b60005b8381101561239757808201518184015260208101905061237c565b838111156123a6576000848401525b50505050565b600060028204905060018216806123c457607f821691505b602082108114156123d8576123d7612456565b5b50919050565b60006123e982612360565b91507fffffffffffffffffffffffffffffffffffffffffffffffffffffffffffffffff82141561241c5761241b612427565b5b600182019050919050565b7f4e487b7100000000000000000000000000000000000000000000000000000000600052601160045260246000fd5b7f4e487b7100000000000000000000000000000000000000000000000000000000600052602260045260246000fd5b7f4e487b7100000000000000000000000000000000000000000000000000000000600052604160045260246000fd5b6000601f19601f8301169050919050565b60008160e01c9050919050565b600060443d10156124e257612585565b60046000803e6124f36000516124c5565b6308c379a081146125045750612585565b60405160043d036004823e80513d602482011167ffffffffffffffff8211171561253057505050612585565b808201805167ffffffffffffffff81111561254f575050505050612585565b8060208301013d850181111561256a57505050505050612585565b612573826124b4565b60208401016040528296505050505050505b90565b612591816122f6565b811461259c57600080fd5b50565b6125a881612308565b81146125b357600080fd5b50565b6125bf81612314565b81146125ca57600080fd5b50565b6125d681612360565b81146125e157600080fd5b5056fea2646970667358221220d52bda93d0dce5e797b8499f7640e05ab3a598a94caf19706329ee43e2c9cb5464736f6c63430008000033",
  "linkReferences": {},
  "deployedLinkReferences": {}
}